:020000040800F2
:100000000812002075010008E12000082D180008E2
:10001000DD200008250E0008FF3D0008000000005C
:10002000000000000000000000000000152D000886
:100030004D110008000000004922000801300008AE
:100040008F0100088F0100088F0100086127000858
:100050008F0100088F0100088F0100088F01000840
:100060008F0100088F0100088F0100088F01000830
:100070008F0100088F0100088F0100088F01000820
:100080008F0100088F0100088F0100088F01000810
:100090008F0100088F0100088F0100088F01000800
:1000A0008F0100088F0100088F0100088F010008F0
:1000B000CD34000849350008C93500088F01000813
:1000C0008F0100088F0100088F0100088F010008D0
:1000D0008F010008F5390008193B00088F0100085E
:1000E0002D1300088F0100088F0100088F01000800
:1000F0008F0100088F0100088F0100088F010008A0
:100100008F0100088F0100088F0100088F0100088F
:100110008F0100088F0100088F0100088F0100087F
:100120008F0100088F0100088F0100088F0100086F
:10013000DFF80CD000F0BAFC00480047D95A00089C
:10014000081200204FF0010080F313880148024993
:100150000160FEE70CED00E00400FA054DF8041D17
:100160004FF0120100FB01F0A0F103000138FDD1B6
:1001700002BC70470648804706480047FEE7FEE796
:10018000FEE7FEE7FEE7FEE7FEE7FEE7FEE7FEE747
:1001900069300008310100080649074A08685043E1
:1001A00043F2390210440860400870470149086072
:1001B00070470000640000206D4EC64140EA010314
:1001C0009B0703D009E008C9121F08C0042AFAD20D
:1001D00003E011F8013B00F8013B521EF9D27047D1
:1001E000421C10F8011B0029FBD1801A7047F0B4A3
:1001F00080EA0102D40F4200B2EB410F02D2024664
:10020000084611464A0042D0C30DDDB2C1F3C752C1
:10021000AD1A202D35DAC1F3160141F4000204B104
:100220005242C5F1200602FA06F12A411044B3EB0E
:10023000D05F23D0C4B1012DA0EBC35009DCF0BCCA
:100240004FF0004202EAC352DBB200F5000000F0BA
:100250006CBB400000F1807000EBC350A0F18070D7
:1002600040EAD170490009E0490841EAC071A0EBB9
:10027000C35000F50000400800EBC350F0BC00F094
:100280004BBB6142012202EB4101001BF6E7F0BCCF
:10029000704781F00041AAE780F00040A7E780EABC
:1002A000010210B502F00043400022D04A001FD0E6
:1002B000010E01EB1261C0F35600C2F3560240F486
:1002C000000042F40002A0FB022000047F39140465
:1002D00000D0401C50EA124001D44000491EC2B276
:1002E0000C0604EBD010401C4008802A02D003E02A
:1002F000002010BD20F00100002900DA0020184382
:1003000010BD30B480EA010202F0004530F0004236
:1003100021F0004013D090B1C30DD40DC2F31601EB
:10032000C0F31600E41A41F4000140F400027D34E9
:10033000914201D3641C00E04900002C02DA30BC79
:10034000002070474FF400000023914201D3891A26
:10035000034340084FEA4101F7D151B1914202D124
:100360004FF0004105E002D24FF0010101E06FF0D3
:10037000010103EBC450284430BC00F0CDBA2DE994
:10038000FE4F804681EA0300C00F0C46009021F02A
:10039000004123F00045B8EB0200A94105D24046D8
:1003A000214690461C460B46024623F0004010436F
:1003B00047D0270DC7F30A00C3F30A510290401A31
:1003C000019040286BDAC3F3130040F4801B0098BF
:1003D000924620B10023D2EB030A63EB0B0B01988A
:1003E0005946C0F14002504600F065FA06460D46F7
:1003F00050465946019A00F07DFA10EB0800614121
:10040000002487EA115284EAE7731A4340D0009A25
:1004100062B3019A012A4FEA075215DC001B61EB17
:1004200002014FF0004202EA0752CDE90042001CEF
:1004300041F5801132462B4600F0D2FA03B0BDE8F8
:10044000F08F40462146F9E7001B61EB0201001CDA
:1004500041F5801300185B412018A2F5001747EB07
:10046000030140EAD570B6196D4111E06D084FEAFD
:10047000360645EAC0754FEA0752001B61EB0201E0
:10048000001C41F5801149084FEA30000019514124
:1004900032462B4603B0BDE8F04F00F092BA009808
:1004A000012240000023D0EB020263EBE0730098CE
:1004B00021464FEAE074B8EB000061EB0401E9E784
:1004C00083F000435BE781F0004158E72DE9FE4FE0
:1004D00081EA030404F0004421F0004100944FF04D
:1004E000000B23F0004350EA01045ED052EA0304FB
:1004F0005BD0C3F30A54C1F30A552C44A4F2F3347D
:100500000194A0FB0254C1F3130141F48011C3F321
:10051000130343F4801301FB024400FB034E840ADF
:10052000970A44EA815447EA8357A4FB0768029577
:100530008D0A05FB07854FEA932C04FB0C54270515
:10054000029D4FEA065847EA1637B5EB08056EEBF1
:10055000070C870E920E47EA811742EA8312A7FB27
:100560000201B6EB0B0164EB00042B0D43EA0C33E4
:100570005E1844EB1C50DA465146E7FB0201C5F316
:1005800013044FEA0B3343EA14534FEA0432019C3D
:1005900043EA0603A4F10C040294009CCDE900B4E4
:1005A00000F01EFA03B0BDE8F08F00200146F9E725
:1005B0002DE9F04D81EA030404F0004B21F00045E1
:1005C00014464FF0000A23F0004150EA050220D003
:1005D00054EA01021DD0C5F30A570246C5F31303BE
:1005E000C1F31300C1F30A5640F4801543F480139D
:1005F000A7EB0608101BD64608F2FD3873EB050082
:1006000002D308F1010801E092185B41B8F1000F34
:1006100003DA00200146BDE8F08D00204FF4801180
:10062000064684460EE0171B73EB050705D3121B25
:1006300063EB050306434CEA010C49084FEA30001E
:1006400092185B4150EA0107EDD152EA030012D043
:1006500082EA040083EA0501084305D0101BAB4180
:1006600006D20122002306E000224FF0004302E000
:100670006FF0010253101AEB06004CEB085110EB1F
:100680000A0041EB0B01BDE8F04D00F09AB9C10F33
:1006900080EAE0700844CA079623002100F045B9BB
:1006A00096230022114600F040B90EB5C10F80EA32
:1006B000E0700844CA07002140F233438DE80E0081
:1006C0000A460B4600F08CF903B000BD0EB540F2AF
:1006D000334102910021CDE900110A460B4600F09A
:1006E0007FF903B000BD00F0004220F00040C10DD2
:1006F000C0F3160040F400007F2901DA00207047A3
:10070000962903DCC1F19601C84001E09639884082
:10071000002AF4D04042704720F00040C10DC0F3E1
:10072000160040F400007F2901DA00207047962966
:1007300003DCC1F19601C840704796398840704784
:1007400070B5C1F30A5201F000450024C1F3130152
:1007500040F2FF3341F480119A4201DA002070BD6B
:1007600040F233439A42A2F2334203DC524200F099
:10077000B1F800E090402C43F1D0404270BDC1F38D
:100780000A5210B5C1F3130140F2FF3341F4801156
:100790009A4201DA002010BD40F233439A42A2F29D
:1007A000334203DC524200F095F810BD904010BD7A
:1007B00000F0004230F000400AD0C10D01F5607138
:1007C000C0F3160042EA0151C208400711437047C6
:1007D000002001467047000030B5041E71F100048E
:1007E00004DB4FF00044404264EB0101141E73F13E
:1007F000000405DB1C464FF00043524263EB040348
:10080000994208BF904230BD01F0004330B421F05E
:10081000004150EA010206D00A0DA2F56072C1F350
:100820001301002A02DC30BC00207047440F44EA68
:10083000C104C100E01830BC00EBC25000F06CB83D
:10084000002801DBC0F10040002901DBC1F10041BB
:10085000814270472DE9F05F0546002092469B4695
:1008600088460646814640241BE0284641464746C6
:10087000224600F02FF853465A46C01A914110D331
:1008800011461846224600F016F82D1A67EB0108AB
:100890004F4622460120002100F00DF817EB000919
:1008A0004E41201EA4F10104DFDC484631462A46B1
:1008B0004346BDE8F09F202A04DB203A00FA02F10B
:1008C000002070479140C2F1200320FA03F319433E
:1008D00090407047202A04DB203A21FA02F00021E0
:1008E000704721FA02F3D040C2F120029140084340
:1008F00019467047202A06DBCB17203A41FA02F04E
:1009000043EAE07306E041FA02F3D040C2F120026C
:1009100091400843194670470029A8BF7047401C02
:10092000490008BF20F00100704710B4B0FA80FC05
:1009300000FA0CF050EA010404BF10BC704749B142
:10094000CCF1200421FA04F411FA0CF118BF0121B2
:1009500021430843A3EB0C01CB1D4FEA00614FEA92
:10096000102042BF002010BC704700EBC350104461
:100970000029A4BF10BC7047401C490008BF20F0EC
:10098000010010BC704710B541000CD0C0F3C75136
:10099000962908DC7E2909DC06DB410204D000F040
:1009A000004040F07E5010BD002010BDC1F1960403
:1009B000C4F1200100FA01F1E040FFF7ADFFA040D3
:1009C00010BD10B5141E73F1000408DA401C41F18B
:1009D000000192185B411A4301D120F0010010BDC3
:1009E0002DE9F04D92469B4611B1B1FA81F202E039
:1009F000B0FA80F220329046FFF75DFF04460F46C2
:100A000040EA0A0041EA0B0153465A46084313D014
:100A1000114653EA010019D0C8F140025046FFF7D1
:100A200059FF05460E46504659464246FFF743FFDA
:100A3000084305D0012004E020463946BDE8F08D8A
:100A40000020054346EAE0762C4337430A986305C5
:100A5000E40AA0EB08000022FD0A44EA47540A30E9
:100A600002D500200146E9E7010510196941DDE9D9
:100A7000084500196941BDE8F04DA2E770B521F0C5
:100A8000004303430CD0C1F30A550024D5EB040501
:100A900064EB0403D617AD1AB34102DB0020014614
:100AA00070BD201841EB025170BD0000064C074D8F
:100AB00006E0E06840F0010394E80700984710342E
:100AC000AC42F6D3FFF738FB189D0008389D0008AC
:100AD000420005D0C0F3C7525242914201DC0020CF
:100AE000704700EBC150704708B50121084601F07E
:100AF000ADFB01214FF4027001F0D8FB0120ADF8ED
:100B0000000000208DF803006946024800F0E4FC74
:100B100008BD0000000C014010B5FFF7E5FF00F034
:100B200001F810BD00B591B0314800F04BFA3148E2
:100B3000069031480790002008900120099000207D
:100B40000A900B904FF480700C9080000D90202044
:100B50000E9000020F900020109006A9244800F08B
:100B6000D7FA0121224800F021FA0020019001204B
:100B70008DF808008DF809004FF4602003900020E4
:100B8000049001208DF8140001A91A484C3800F097
:100B90005FF805230122082116484C3800F080F840
:100BA000012114484C3800F034F8012111484C3828
:100BB00000F024F80F484C3800F0CEF800BF0D4884
:100BC0004C3800F03BF80028F9D10A484C3800F0C6
:100BD000D3F800BF07484C3800F026F80028F9D1B8
:100BE000012104484C3800F0BCF811B000BD0000F1
:100BF000080002404C2401406000002021B18268BE
:100C000042F00102826003E0826822F00102826009
:100C1000704721B1826842F48072826003E082688A
:100C200022F4807282607047014600208A6802F0D8
:100C300004020AB1012000E00020704701460020B4
:100C40008A6802F008020AB1012000E00020704723
:100C500030B502460020002350680F4C20400D792B
:100C60000C6844EA05242043506090680B4C2040F7
:100C7000D1E902542C434D7944EA45042043906065
:100C8000D06A20F470000C7C641EE4B2234340EA76
:100C90000350D06230BD0000FFFEF0FFFDF7F1FF12
:100CA000F0B504460D4600200021092D11DDE06855
:100CB000A5F10A0606EB4607072606FA07F1884360
:100CC000A5F10A0606EB460603FA06F10843E060C2
:100CD0000CE0206905EB4507072606FA07F1884373
:100CE00005EB450603FA06F108432061072A0FDAEF
:100CF000606B561E06EB86071F2606FA07F188432F
:100D0000561E06EB860605FA06F10843606322E0EC
:100D10000D2A0FDA206BD61F06EB86071F2606FA70
:100D200007F18843D61F06EB860605FA06F108434D
:100D3000206310E0E06AA2F10D0606EB86071F268D
:100D400006FA07F18843A2F10D0606EB860605FABE
:100D500006F10843E062F0BD816841F0080181605E
:100D6000704721B1826842F4A002826003E0826889
:100D700022F4A00282607047816841F00401816022
:100D8000704770B50446002600F022FE2546E117A4
:100D900004EB11610912A02202EB4101C8B200F07C
:100DA000E7FD00F04DFEE11704EB11610912A4EB21
:100DB0000121C8B200F0DCFD00F042FE00F008FEA8
:100DC000A12000F0D5FD00F03BFE002000F082FDE8
:100DD000064600F019FE304670BD10B5012001F046
:100DE00085FA002001F082FA10BD000008B5014626
:100DF000002000900348009000980844009000985C
:100E0000008808BD006C004008B500220092044A2A
:100E10000092009A02440092009A116008BD0000FE
:100E2000006C004000BFFEE710B54A1C91B20EE016
:100E3000002200EB4003074CE25400EB4003234444
:100E40005A7000EB400323449A70421C90B28842CF
:100E5000EEDB10BD060100202DE9F04104460D46F1
:100E600016461F4695FBF4F004FB10553B463246F0
:100E70002946204600F032F8BDE8F0812DE9F04126
:100E800086B005460E46174603A804A905AB3A46A8
:100E9000CDE900103146284604F064FD0E4905985E
:100EA000FFF7FDF98046FFF737FC04040A49049870
:100EB000FFF7F5F98046FFF72FFC44EA00240649C6
:100EC0000398FFF7ECF98046FFF726FC0443204621
:100ED00006B0BDE8F081000000007F432DE9F04F2F
:100EE00085B083460C4691469A465846FFF7DDFB8F
:100EF000074688462046FFF7D8FB00220B4BCDE97A
:100F00000001FFF7E3FA3A464346CDE90201FFF755
:100F10004FFB0546FFF778FC04905246494604987B
:100F2000FFF7ACFF05B0BDE8F08F00000080764011
:100F300008B50121042001F0B9F94FF48070ADF833
:100F4000000010208DF8030003208DF80200694690
:100F5000044800F0C1FA4FF48071024800F05BFBD6
:100F600008BD00000008014008B54FF48070ADF8DE
:100F7000000048208DF803006946024800F0ACFAF2
:100F800008BD00000008014008B54FF48070ADF8BE
:100F9000000010208DF8030003208DF80200694640
:100FA000014800F099FA08BD0008014021B102682B
:100FB00042F00102026004E002684FF6FE731A403C
:100FC0000260704701684FF6FE7211400160002117
:100FD000016041608160C1604B49884208D14A4943
:100FE0000839496841F00F01474A083A51608AE0E0
:100FF00045491431884208D143490839496841F0CC
:10100000F001414A083A51607DE03F492831884269
:1010100008D13D490839496841F470613A4A083AB3
:10102000516070E038493C31884208D1364908396E
:10103000496841F47041344A083A516063E03249EA
:101040005031884208D130490839496841F470214B
:101050002D4A083A516056E02B496431884208D144
:1010600029490839496841F47001274A083A516012
:1010700049E025497831884208D12349083949682F
:1010800041F07061204A083A51603CE01F498842B3
:1010900006D1011F096841F00F01021F116032E003
:1010A0001A491431884208D11849091F096841F0CA
:1010B000F001164A121F116025E0144928318842B8
:1010C00008D11249091F096841F470610F4A121FC3
:1010D000116018E00D493C31884208D10B49091FC5
:1010E000096841F47041094A121F11600BE0074979
:1010F0005031884207D10549091F096841F4702120
:10110000024A121F116070470800024008040240A2
:1011100010B50022026847F6F0739A430C6A8B6898
:1011200023430C6923434C6923438C692343CC69D3
:1011300023434C6A23438C6A23431A430260CB68DF
:1011400043600B6883604B68C36010BD704701B596
:10115000002107E042F6E06100BF0800A1F10102B2
:1011600091B2FAD10098421E00920028F2D108BD37
:10117000F8B54FF480610020FFF756FE04F07AFCCA
:10118000CAE001F005FA654802780C21102000F051
:101190008BFD44B2614802780C21102000F098FCCD
:1011A00045B25F4810231A4621460090284604F0B5
:1011B00003F95C4802780821102000F075FD44B264
:1011C000584802780821102000F082FC45B24FF404
:1011D0007F4010231A4621460090284604F0ECF880
:1011E000504800780A2190FBF1F04F4909780C2211
:1011F00091FBF2F302FB1311052202FB0100C6B2C0
:1012000032460621102000F04FFD44B245480078D8
:101210000A2190FBF1F0444909780C2291FBF2F38A
:1012200002FB1311052202FB0100C6B23246062161
:10123000102000F04DFC45B2FF2010231A46214635
:101240000090284604F0B8F84FF4FA7003F01CFE42
:10125000324802780C21102000F026FD44B22F48BD
:1012600002780C21102000F033FC45B2002010233E
:101270001A4621460090284604F09EF82948027834
:101280000821102000F010FD44B226480278082101
:10129000102000F01DFC45B2002010231A46214604
:1012A0000090284604F088F81E4800780A2190FB38
:1012B000F1F01D4909780C2291FBF2F302FB1311A6
:1012C000052202FB0100C6B232460621102000F0C2
:1012D000EBFC44B2134800780A2190FBF1F012496C
:1012E00009780C2291FBF2F302FB1311052202FB99
:1012F0000100C6B232460621102000F0E9FB45B2DB
:10130000002010231A4621460090284604F054F885
:1013100003F06AFC00B1F8BD33E7000020000020B4
:1013200000A5FF001F0000201E00002010B54FF494
:10133000005000F053F860B300BF4FF4005115485F
:1013400000F055F90028F8D04FF40071114800F072
:1013500057F9C0F10100C4B222464FF400710D48A4
:1013600000F05BF90C480078782805DA0A48007824
:10137000401C0949087002E000200749087006482F
:10138000007840F08000044908704FF4005000F0ED
:1013900005F810BD001001404E0000200149086012
:1013A00070470000140401401CB50121084600F0FC
:1013B0007DFF0D21022000F06FF84FF400500090E7
:1013C00000208DF804000C208DF8050001208DF818
:1013D0000600684600F016F81CBD0000014600201B
:1013E0000022074B1B6803EA0102054B14331B68FC
:1013F0000B4013B10AB1012000E00020704700004B
:1014000000040140002123498279002A3AD00A468B
:10141000126803689A430B461A600A1D1268036833
:101420009A430B1D1A60027911440A6803681A4333
:101430000A60184A0832126803689A43154B083349
:101440001A601A1D126803689A43124B0C331A6013
:101450004279102A0ED11A1F126803681A430D4BE5
:1014600008331A601A1D126803681A43094B0C33BB
:101470001A600DE00749427911440A6803681A436B
:101480000A6005E0027911440A6803689A430A6019
:10149000704700000004014030B500228B071C0F8C
:1014A0000F2303FA04F20B4B8C1053F824309343B0
:1014B000084C8D1044F8253023468C1053F8243006
:1014C0008C07240F00FA04F42343024C8D1044F8D7
:1014D000253030BD080001402DE9F04102460025CD
:1014E0000026002000230024002791F803C00CF000
:1014F0000F0591F803C00CF0100CBCF1000F03D0E5
:1015000091F802C04CEA050591F800C0BCF1000F4B
:1015100031D0146800202BE04FF0010C0CFA00F3DE
:10152000B1F800C00CEA03069E4220D183004FF0C0
:101530000F0C0CFA03F7BC4305FA03FC4CEA040455
:1015400091F803C0BCF1280F06D14FF0010C0CFA42
:1015500000FCC2F814C00AE091F803C0BCF1480FC7
:1015600005D14FF0010C0CFA00FCC2F810C0401C71
:101570000828D1D31460B1F800C0BCF1FF0F34DDEE
:10158000546800202EE000F1080C4FF0010808FA22
:101590000CF3B1F800C00CEA03069E4221D183008F
:1015A0004FF00F0C0CFA03F7BC4305FA03FC4CEAAE
:1015B000040491F803C0BCF1280F05D100F1080C18
:1015C00008FA0CF8C2F8148091F803C0BCF1480F77
:1015D00007D100F1080C4FF0010808FA0CF8C2F826
:1015E0001080401C0828CED35460BDE8F08102462C
:1015F000002093680B400BB1012000E000207047F1
:1016000002460020D3680B400BB1012000E000200F
:10161000704741617047016170470AB1016100E0A4
:101620004161704710B53848007801284ED13648DE
:10163000007800F0FE0034490870344934A002F00C
:10164000E1FB37A1314804F07DFF28B137A002F05B
:10165000D9FBFEF777FD29E035A12C4804F072FF95
:1016600018B139A002F0CEFB20E03EA1274804F0DB
:1016700069FF18B13DA002F0C5FB17E03CA123486B
:1016800004F060FF18B13DA002F0BCFB0EE03FA0EB
:1016900002F0B8FB44A002F0B5FB49A002F0B2FB97
:1016A0004EA002F0AFFB56A002F0ACFB09E0002018
:1016B0001649584A1278885456480078401E5549B1
:1016C0000870544800780028F1D11BE00E480078DB
:1016D000022817D10C48007800F0FD000A49087074
:1016E0004DA002F08FFB09E000210848494A12781A
:1016F000815448480078401E4649087045480078A3
:101700000028F1D110BD00001B0000207000002057
:10171000537472696E672069733A25730A0000007A
:1017200041542B5253540D0A000000004F4B0D0042
:1017300041542B5350495F464C4153485F42756CAE
:101740006B45726173650A005B4F4B5D20535049D6
:101750005F464C4153485F42756C6B4572617365DF
:10176000204F4B0041542B41000000004F4B000024
:1017700041542B434C4F53450D0A00005B4F4B5DCA
:1017800020434C4F5345205359530A002A2A2A20FC
:10179000202053797374656D2048656C702020207B
:1017A0002A2A2A0A00000000506C656173652061D6
:1017B0006E792041542B202E2E20200A000000009C
:1017C00041542B52535420746F207265626F6F74B2
:1017D0002053797374656D0A0000000041542B5347
:1017E00050495F464C4153485F42756C6B4572618E
:1017F000736520746F2045726173650A00000000F4
:1018000041542B434C4F534520636C6F7365206CE0
:1018100065640A001A0000200D0A204461746120EA
:101820006F766572666C6F77200D0A0000BFFEE769
:1018300010B540210B48FFF7ECFE00F087F880213F
:101840000848FFF7E6FE022003F03CFB4021054874
:10185000FFF7E1FE052003F035FB40210148FFF7CB
:10186000D8FE10BD000C014008B5C020ADF8000046
:1018700003208DF8020010208DF803006946064809
:10188000FFF72AFE40210448FFF7C5FE80210248E9
:10189000FFF7C1FE08BD0000000C014010B540215B
:1018A0000B48FFF7B6FE00F051F880210848FFF71B
:1018B000B2FE022003F006FB40210548FFF7ABFE15
:1018C000052003F0FFFA40210148FFF7A2FE10BDFA
:1018D000000C014070B505460026002400F028F8F1
:1018E00000BF18E040211148FFF793FE022003F0EB
:1018F000E9FA40210D48FFF78EFE6006040E8021B4
:101900000A48FFF774FE08B1601CC4B2012003F05E
:10191000D9FA701CC6B2082EE4DB15B9FFF7BEFF7A
:1019200001E0FFF785FF204670BD0000000C01407C
:1019300008B58020ADF8000048208DF80300694606
:101940000148FFF7C9FD08BD000C014008B5802023
:10195000ADF8000003208DF8020010208DF8030080
:1019600069460248FFF7B8FD08BD0000000C0140C1
:1019700070B504460025FFF7E9FF40211348FFF743
:1019800048FE00BF1EE004F08000002804DD802136
:101990000E48FFF740FE03E080210C48FFF739FEB8
:1019A0006006040E40210948FFF735FE022003F0CF
:1019B00089FA40210548FFF72CFE022003F082FA45
:1019C000681CC5B2082DDEDB70BD0000000C0140B4
:1019D00010B5FFF7BBFF80210A48FFF71CFE40212E
:1019E0000848FFF718FE052003F06CFA802105482F
:1019F000FFF70FFE062003F065FA40210148FFF7CC
:101A000008FE10BD000C014010B5FFF79FFF4021FC
:101A10000A48FFF7FEFD80210848FFF7FAFD402144
:101A20000648FFF7F8FD062003F04CFA8021034832
:101A3000FFF7F1FD062003F045FA10BD000C014050
:101A400010B50024FFF774FF80211148FFF7E3FD74
:101A5000012003F037FA40210D48FFF7DCFD01209B
:101A600003F030FA07E0601CC4B2FA2C03DDFFF784
:101A7000CBFF012010BD80210548FFF7B8FD0028ED
:101A8000F1D140210248FFF7C4FD0020F2E7000039
:101A9000000C01400146CA1701EB92729210A1EBB3
:101AA000820292B9642091FBF0F200FB121050B94F
:101AB0004FF4C87091FBF0F200FB121008B901203E
:101AC00070470020FCE70120FAE70020F8E700005B
:101AD0002DE9F04F8FB083468A461446002C2FDD47
:101AE0000F2C2DDC2046FEF7F1FD0746684A694BB6
:101AF000FEF7ECFC05460022674BFEF759FDCDE9E9
:101B0000020104F003FCCDE906015046FEF7DEFDBC
:101B1000CDE90401DDE90623FEF7D8FCCDE90A0191
:101B20005846FEF7D3FDCDE90801DDE90A23FEF7AB
:101B300026FCCDE90C01FEF722FE00F0FF09A3E030
:101B40000F2C35DD1E2C33DC2046FEF7BFFD504A3E
:101B5000504BCDE90001FEF7B9FC00224E4BCDE918
:101B60000201FEF725FD4A4A4C4BCDE90401FEF780
:101B7000A7FC054603F04CF8CDE906015046FEF7F8
:101B8000A5FD0746DDE90623FEF7A0FCCDE90A0125
:101B90005846FEF79BFDCDE90801DDE90A23FEF773
:101BA000EEFBCDE90C01FEF7EAFD00F0FF096BE06A
:101BB0001E2C35DD2D2C33DC2046FEF787FD344A04
:101BC000344BCDE90001FEF781FC05460022324B83
:101BD000FEF7EEFC07462E4A2E4BFEF771FCCDE9D0
:101BE000020104F093FBCDE906015046FEF76EFDBD
:101BF000CDE90401DDE90623FEF768FCCDE90A0121
:101C00005846FEF763FDCDE90801DDE90A23FEF73A
:101C100057FCCDE90C01FEF7B2FD00F0FF0933E0FF
:101C20002046FEF753FD0546194A1A4BFEF74EFCB7
:101C30000022194BCDE90001FEF7BAFC184A194BF6
:101C4000CDE90201FEF73CFCCDE9040102F0E0FF22
:101C5000074688465046FEF739FD3A464346CDE9E9
:101C60000601FEF733FCCDE90A015846FEF72EFDCA
:101C7000CDE90801DDE90A23FEF722FCCDE90C01DC
:101C8000FEF77DFD00F0FF0948460FB0BDE8F08F7C
:101C90006F1283C0CA21094000003E40CA21F93FAB
:101CA000D34D621058D912402DE9F04F8FB08346C2
:101CB0008A461446002C2FDD0F2C2DDC2046FEF723
:101CC00005FD0746684A694BFEF700FC0546002201
:101CD000674BFEF76DFCCDE9020102F099FFCDE9FB
:101CE00006015046FEF7F2FCCDE90401DDE90623CA
:101CF000FEF7ECFBCDE90A015846FEF7E7FCCDE91B
:101D00000801DDE90A23FEF7DBFBCDE90C01FEF754
:101D100036FD00F0FF09A3E00F2C35DD1E2C33DC6F
:101D20002046FEF7D3FC504A504BCDE90001FEF7A8
:101D3000CDFB00224E4BCDE90201FEF739FC4A4AA9
:101D40004C4BCDE90401FEF7BBFB054604F0DEFA7F
:101D5000CDE906015046FEF7B9FC0746DDE906234A
:101D6000FEF7B4FBCDE90A015846FEF7AFFCCDE91A
:101D70000801DDE90A23FEF702FBCDE90C01FEF7BD
:101D8000FEFC00F0FF096BE01E2C35DD2D2C33DC52
:101D90002046FEF79BFC344A344BCDE90001FEF7A8
:101DA00095FB05460022324BFEF702FC07462E4A01
:101DB0002E4BFEF785FBCDE9020102F029FFCDE9AC
:101DC00006015046FEF782FCCDE90401DDE9062359
:101DD000FEF77CFBCDE90A015846FEF777FCCDE91A
:101DE0000801DDE90A23FEF7CAFACDE90C01FEF786
:101DF000C6FC00F0FF0933E02046FEF767FC05460D
:101E0000194A1A4BFEF762FB0022194BCDE900017B
:101E1000FEF7CEFB184A194BCDE90201FEF750FB45
:101E2000CDE9040104F072FA074688465046FEF7F1
:101E30004DFC3A464346CDE90601FEF747FBCDE9A6
:101E40000A015846FEF742FCCDE90801DDE90A2304
:101E5000FEF736FBCDE90C01FEF791FC00F0FF091F
:101E600048460FB0BDE8F08F6F1283C0CA21094009
:101E700000003E40CA21F93FD34D621058D91240AC
:101E800008B54FF4007088494861642002F0FCFFF7
:101E90004FF4007084490861642002F0F5FF4FF4AC
:101EA000007081494861642002F0EEFF4FF4007039
:101EB0007D490861642002F0E7FF4FF480707A49A1
:101EC000486140F2FF310020FEF7AEFF012004F030
:101ED000FBF84FF4967002F0D7FF012004F0F4F8FD
:101EE00072A3744A0021042003F0C8FB72A36FF0B0
:101EF0007F420721042003F0C1FB002004F0E4F836
:101F00006FA3714A0E21042003F0B8FB6FA36E4A41
:101F10001421042003F0B2FB4FF4FA6002F0B4FF86
:101F200040F2FF310020FEF77FFF6A4803F088FC93
:101F30004FF4FA7002F0A8FF674820231A460021E8
:101F40000090084603F004FB4FF4FA7002F09CFF87
:101F50004FF47F001F231A4600210090084603F02B
:101F60002BFA4FF47F001F230022114600901846E1
:101F700003F022FA4FF4FA7002F086FFFF230722E3
:101F80001146104603F016F94FF4FA7002F07CFF88
:101F90004FF0FF1307221146172003F0BDFB4FF44B
:101FA000FA7002F071FF002003F04AFC40F2FF31AA
:101FB0000020FEF739FF002433E04FF4FA7002F0FE
:101FC00063FF4FF48070384948614FF47F0003F09D
:101FD00037FC4FF4FA7002F057FF40F2FF31002057
:101FE000FEF722FF4FF47F4003F02AFC4FF4FA7013
:101FF00002F04AFF40F2FF310020FEF715FFFF20FC
:1020000003F01EFC4FF4FA7002F03EFF40F2FF3185
:102010000020FEF709FF4FF4807023490861601C1F
:10202000C4B2022CC9DB00240EE04FF48061002012
:10203000FEF7FAFE002141EA044003F001FCC8204B
:1020400002F022FF601DC4B2FF2CEEDB00240EE084
:102050004FF480610020FEF7E7FE002141EA0420F2
:1020600003F0EEFBC82002F00FFF601DC4B2FF2C8E
:10207000EEDB00240CE04FF480610020FEF7D4FE7C
:10208000204603F0DDFBC82002F0FEFE601DC4B256
:10209000FF2CF0DB6FF07F4003F0D2FB4FF4807039
:1020A0000149086100BFFEE70010014053544D3361
:1020B000320000004B17EA00205247422000000087
:1020C0004D617472697800004040FF0020746573B0
:1020D000742000001111110000FFFF0000BFFEE797
:1020E000704708B54FF4A06000F09EF828208DF8E6
:1020F000000003208DF801008DF8020001208DF80A
:102100000300684600F058F826208DF800000020F3
:102110008DF8010001208DF802008DF8030068465B
:1021200000F04AF81C208DF8000002208DF8010014
:102130008DF8020001208DF80300684600F03CF89D
:102140001D208DF8000001208DF8010000208DF881
:10215000020001208DF80300684600F02DF81E20D3
:102160008DF8000000208DF801008DF8020001209C
:102170008DF80300684600F01FF825208DF8000058
:1021800000208DF801008DF8020001208DF8030079
:10219000684600F011F803208DF8000000208DF84B
:1021A000010002208DF8020000208DF8030068462F
:1021B00000F002F808BD000070B5002100230F22D6
:1021C000C47804B3154C246804F4E064C4F5E064F6
:1021D000210AC1F10403CA40447804FA03F1847867
:1021E0001440214309010E4C0678A155047804F0EF
:1021F0001F050124AC4005786D11AD0005F1E02507
:10220000C5F8004109E0047804F01F050124AC4042
:10221000044D0678761145F8264070BD0CED00E0BF
:1022200000E400E080E100E002490143024A11605D
:10223000704700000000FA050CED00E0014908625B
:102240007047000000000E427047000029B1064AA6
:1022500052690243044B5A6104E0034A52698243C3
:10226000014B5A61704700000010024029B1064A34
:10227000D2690243044BDA6104E0034AD269824323
:10228000014BDA61704700000010024029B1064A94
:1022900012690243044B1A6104E0034A1269824343
:1022A000014B1A61704700000010024029B1064A34
:1022B00092690243044B9A6104E0034A92698243A3
:1022C000014B9A61704700000010024029B1064A94
:1022D000D2680243044BDA6004E0034AD2688243C6
:1022E000014BDA60704700000010024001490860AD
:1022F00070470000400442420348406A40F080704A
:1023000001494862704700000010024030B50021CA
:102310000022002400232D4D6D6805F00C0121B131
:10232000042905D0082923D105E0294D056022E0C4
:10233000274D05601FE0254D6D6805F47012234D93
:102340006D6805F48034022505EB92421CB9214DDD
:10235000554305600BE01D4D6D6805F400351DB15A
:102360001C4D5543056002E0194D5543056002E0E0
:10237000174D056000BF00BF144D6D6805F0F001FA
:102380000909154D6B5C0568DD4045600F4D6D68B2
:1023900005F4E061090A104D6B5C4568DD4085601D
:1023A0000A4D6D6805F46051C90A0B4D6B5C4568B8
:1023B000DD40C560054D6D6805F44041890B074D52
:1023C0006B5CC568B5FBF3F5056130BD00100240DC
:1023D00000127A0000093D000000002010000020DB
:1023E00010B501460022002300204A11012A02D123
:1023F000094C236806E0022A02D1074C236A01E057
:10240000054C636A01F01F02012494401C400CB18A
:10241000012000E0002010BD0010024000210B4A06
:1024200011700A4A203A82F82010012802D00428AC
:1024300008D103E00121054A117004E00521034A97
:10244000117000E000BF00BF704700002010024084
:1024500001490860704700003C0442420249096A91
:102460000143014A11627047001002400249098885
:102470008143014A11807047042800401CB50420A4
:10248000FEF7B4FC45F65A21884245D001214FF0B1
:10249000C050FFF7EBFE0120FFF7D0FEFEF79DFCDA
:1024A0000120FFF7BBFF002401E0601C84B241F271
:1024B00088308442F9DB00BF4120FFF791FF0028FC
:1024C000FAD04FF48070FFF7C9FF0120FFF7C0FF7B
:1024D00000F0F6F900F0EAF90121084600F058F999
:1024E00000F0E4F947F6FF7000F0D0F900F0DEF9F3
:1024F00045F65A210420FEF787FC00201C211623F4
:102500000922CDE9001006214FF4FC6000F050F9DB
:1025100010A001F077FC1BE001214FF0C050FFF745
:10252000A5FE002401E0601C84B241F288308442A0
:10253000F9DB7B20FFF754FF10B97A20FFF750FF3B
:10254000FFF7DAFE0021012000F022F900F0AEF9D9
:102550001CBD0000436F6E6669672072746320546F
:10256000696D650A000000000348008840F0100013
:102570000149088070470000042800400348008893
:102580004FF6EF7108400149088070470428004069
:1025900070B500260024002500F08AF806463A4867
:1025A000B6FBF0F439480088A0423DD037490C8092
:1025B00040F2B27510E02846FFF76CFA40B1B4F56E
:1025C000B77F02D3A4F5B77404E0681C85B206E0B7
:1025D000A4F26D14681C85B2B4F5B67FEBD800BFC9
:1025E0002B480580002516E029480088FFF752FA9D
:1025F00030B1012D04D11D2C01D31D3C09E00CE0AC
:102600002448405DA04203D82248405D241A00E0DF
:1026100003E0681C85B21C2CE6D200BF681C1E4972
:102620000870601C1D4908701748B6FBF0F100FBEC
:1026300011644FF46160B4FBF0F0194908704FF475
:102640006160B4FBF0F100FB11403C21B0FBF1F004
:10265000144908704FF46160B4FBF0F100FB1140C5
:102660003C21B0FBF1F201FB12000F4908700B484E
:102670000278094801780648008800F035F80B49CF
:102680000870002070BD000080510100280000206B
:1026900022000020A0670008240000202500002060
:1026A0001E0000201F000020200000202600002027
:1026B000002103480188001F008841EA004070475C
:1026C0001C28004001460020064A12880A40D0B269
:1026D000044A121F12880A4012B108B1012000E01A
:1026E0000020704704280040F0B503460C4615460C
:1026F000642093FBF0F0C6B2642093FBF0F700FB7C
:102700001730C1B2132E02DD01F16400C1B20846D8
:10271000CF1701EB977701EBA707BAB2072092FB1F
:10272000F0F700FB172082B25719601EDFF82CC0AB
:102730001CF80000384482B2CF1701EB9777BF1026
:10274000A1EB87071FB9032C01DA501E82B20720C4
:1027500092FBF0F700FB1720C0B2F0BD94670008B1
:1027600010B50120FFF7AEFF70B10120FFF77EFE2C
:1027700000F09CF8FFF79CFF0449884204D1002038
:1027800000F076F800F092F810BD00007F510100D3
:1027900029B1064A12880243044B1A8004E0034A16
:1027A00012888243014B1A807047000000280040C5
:1027B0002DE9F05F06460F4690469946DDE90AABE3
:1027C0000024B6F5FA6F03DB40F63300864202DDE3
:1027D0000120BDE8F09F40F2B2750AE02846FFF7FD
:1027E00059F910B11E48044401E01E480444681C15
:1027F00085B2B542F2DB781EC7B2002510E01A4858
:10280000405D40F2A321484304EBC0143046FFF77B
:1028100041F918B1012D01D114480444681C85B256
:10282000BD42ECDBA8F1010040F2A321484304EBD8
:10283000C014C9EB4910C0EB092004EB0014CAEB2B
:102840000A1004EB80045C440120FFF7F7FC00F061
:102850002DF8204600F00CF800F028F80020B8E72A
:102860000085E2018033E101A0670008805101008A
:1028700000B50246FFF778FE100C03490880091DD9
:102880000A80FFF77BFE00BD1828004000B5024615
:10289000FFF76AFEC2F3034003490880091D0A805E
:1028A000FFF76CFE00BD00000828004000BF034891
:1028B000008800F020000028F9D07047042800406C
:1028C000074800884FF6F77108400549088000BFA7
:1028D0000348008800F008000028F9D07047000085
:1028E0000428004070B50025002427E000BF4FF405
:1028F00080711448FEF77BFE0028F8D02820FDF7F1
:102900002DFC4FF480710F48FEF771FE01280ED1A7
:1029100000BF4FF480710B48FEF769FE0128F8D024
:10292000C4F1070101208840C0B2054304E0C4F1AE
:102930000701012088408543601CC4B2082CD5DB08
:10294000284670BD0008014010B50446FEF71CFB88
:102950004FF480712648FEF75CFE1220FEF7F7FB6D
:102960004FF480712248FEF756FE1E20FDF7F6FB5D
:10297000FEF7FAFA4FF480711D48FEF738FE88BB67
:1029800000BF4FF480711A48FEF731FE0028F8D0DE
:1029900000BF4FF480711648FEF729FE0128F8D0D9
:1029A000FFF7A0FF2070FFF79DFF6070FFF79AFF11
:1029B000A070FFF797FFE070FFF794FF2071FEF71C
:1029C000E3FA4FF480710A48FEF725FE207861781B
:1029D0000844A1780844E17808442179884202D16A
:1029E000012010BD01E00020FBE70020F9E7000016
:1029F000000801402DE9F84F07460C4615461E46D3
:102A0000DDF82880284603F0D1FC83462046FDF7F8
:102A10003EFE59460090FDF742FC8146284602F0F2
:102A200045F983463846FDF732FE59460090FDF7DA
:102A300036FC82464946FDF72CFC3060284602F001
:102A400035F983462046FDF722FE59460090FDF7F2
:102A500026FC8146284603F0A9FC83463846FDF74C
:102A600016FE59460090FDF71AFC82464946FDF7CE
:102A7000BEFBC8F80000BDE8F88F00002DE9F04F5C
:102A80008BB04FF0100A10200A90564809906FF052
:102A900002000890232007905348069006200590D6
:102AA000192004905148039000269AE00F2002F06C
:102AB000EBF94FF4B47096FBF0F100FB11666FF088
:102AC000020483E06FF002057CE03046FDF7DFFD95
:102AD00080464649FDF7E3FB074601A8A5F1100132
:102AE0000090A4F1100002AB3A46FFF783FF062CDA
:102AF0004EDB192C4CDA062D4ADB192D48DA4FF043
:102B000083410198FDF773FB8146FDF705FE47B24F
:102B10004FF083410298FDF76AFB8146FDF7FCFD0B
:102B20004FFA80F800223946404602F0A3FC1922F1
:102B30000621204603F05AFA4FEA004B19220621DB
:102B4000284603F053FAC0F1FF004BEA002B19228C
:102B50000621284603F04AFA4BEA00074FF083416A
:102B60000198FDF744FB8346FDF7D6FD4FFA80F848
:102B70004FF083410298FDF73AFB8346FDF7CCFD09
:102B80004FFA80F93A464146484602F073FC17E096
:102B90004FF083410198FDF72AFB8146FDF7BCFD0C
:102BA00047B24FF083410298FDF721FB8146FDF7C4
:102BB000B3FD4FFA80F800223946404602F05AFC35
:102BC000681C45B2232D80DB601C44B2232CFFF629
:102BD00079AF761C02F008F810B10BB0BDE8F08FA9
:102BE00000BF63E785EB1D42CDCC9C41A7E78E3C3F
:102BF00021B1028842F04002028004E002884FF6D0
:102C0000BF731A400280704710B586B00446012198
:102C10002420FFF74BFB01210803FFF747FB0121AD
:102C20000846FFF743FB2020ADF8000003208DF895
:102C3000020018208DF8030069462548FEF74CFC79
:102C40004020ADF8000069462148FEF745FC802091
:102C5000ADF8000069461E48FEF73EFC1020ADF8B6
:102C600000008DF8030069461948FEF735FC102175
:102C70001748FEF7D0FC0020ADF804004FF4827036
:102C8000ADF806000020ADF808000220ADF80A00FB
:102C90000120ADF80C004002ADF80E000820ADF8A0
:102CA00010000020ADF812000720ADF8140001A9B3
:102CB000084800F011F8012C04D101210548FFF764
:102CC00097FF03E000210348FFF792FF06B010BD15
:102CD000000801400030014010B50022028802F4D3
:102CE00041520B884C8823438C882343CC88234350
:102CF0000C8923434C8923438C892343CC89234368
:102D00001A430280838B4FF2FF74234083830B8A24
:102D1000038210BD704700001FB544A30FCB8DE8A0
:102D20000F00FFF735FC002404E00020434908555C
:102D3000601CC4B2FF2CF8DB002405E01DF8040081
:102D40003E490855601CC4B20D2CF7DB3C480078A6
:102D50000A2190FBF1F03030384948733848007848
:102D60000A2190FBF1F201FB1200303033498873E5
:102D70003A20C873334800780A2190FBF1F03030D4
:102D80002E4908742F4800780A2190FBF1F201FBCC
:102D900012003030294948743A2088742A48007853
:102DA0000A2190FBF1F030302449C874264800789D
:102DB0000A2190FBF1F201FB120030301F49087527
:102DC000202048758875214800780A2190FBF1F091
:102DD00030301A49C8751D4800780A2190FBF1F27D
:102DE00001FB12003030154908762020487618483B
:102DF00000780A2190FBF1F03030104988761448B1
:102E000000780A2190FBF1F201FB120030300B49EF
:102E1000C8761B200F4908800F4800680078098891
:102E20004843401E0D4908801FBD00004E6F7720AB
:102E300054696D652069733A20000000060D00207A
:102E40001E0000201F000020200000202400002081
:102E50002500002048000020380000204A00002003
:102E600010B500F001F810BD0CB5002001900090E5
:102E70003348006840F480303149086000BF304872
:102E8000006800F4003000900198401C0190009808
:102E900018B90198B0F5A06FF1D12948006800F485
:102EA000003010B10120009001E000200090009857
:102EB000012843D12348006840F0100021490860F0
:102EC0000846006820F0030008600846006840F0EB
:102ED000020008601A48406819494860084640687E
:102EE00048600846406840F4806048600846406892
:102EF00020F47C1048600846406840F45410486054
:102F00000846006840F08070086000BF0C48006808
:102F100000F000700028F9D00948406820F0030054
:102F2000074948600846406840F00200486000BF1A
:102F30000348406800F00C000828F9D10CBD0000DF
:102F4000001002400020024010B586B04CF6CA24A2
:102F50004FF480610020FDF767FF002003F0F0F8D8
:102F6000142003F0F9F8012003F0E0F8002003F04A
:102F700011F9204603F0D4F80C2003F0F9F825E00D
:102F8000FFF706FB1248007812490978124A1278B6
:102F9000CDE900210290114803781148027811A16F
:102FA00003A800F03FFF012103A803F031F86420DB
:102FB00001F06AFF01F018FE40B1052003F0C0F8EF
:102FC00001210EA003F024F806B010BDD8E70000E0
:102FD0002500002024000020200000201F000020E9
:102FE0001E00002020202020202025643A25643A5D
:102FF0002564202025642D256400000000000000C9
:1030000010B500F0A9FC10BD30B51449B1F1807FB6
:1030100001D301201DE021F07F40401E4FF0E0224F
:10302000506150170F22002807DA13071D0E0C4BB2
:1030300000F00F04241F1D5503E013071C0E094B5D
:103040001C5400BF00204FF0E02290610720106167
:10305000002008B100BFFEE730BD000040190100AC
:1030600018ED00E000E400E010B51348006840F0FF
:1030700001001149086008464068104908400E499F
:103080004860084600680E4908400B490860084639
:10309000006820F4802008600846406820F4FE00A4
:1030A00048604FF41F008860FFF7DAFE4FF00060C1
:1030B0000449086010BD0000001002400000FFF845
:1030C000FFFFF6FE08ED00E03EB503F069F84FF4AF
:1030D000007050494861FFF797FFFEF7C5FBFDF709
:1030E00027FF4FF4E131012000F03AFC40214A482B
:1030F00000F04EFDFEF7F5FF0120FFF785FDFFF71D
:10310000BDF9FDF709FD45A000F07CFE4BA000F0E5
:1031100079FE57A000F076FE5DA000F073FE5FA080
:1031200000F070FE65480368001D0268001D01681C
:1031300063A000F067FE61480838018867A000F0CE
:1031400061FEFFF725FA6C4800786C4909786C4AF3
:103150001278CDE9002102906A4803786A48027823
:103160006A4801886AA000F04DFE7348FFF7ECFB47
:1031700001280AD17048C07800906F48837842785F
:1031800001786EA000F03EFE02E079A000F03AFE69
:1031900080A000F037FE8BA000F034FE92A000F07B
:1031A00031FE402210219CA000F02CFE0220FDF7F1
:1031B000E8FD04460120FDF7E4FD054622462946C8
:1031C0009FA000F01FFE32A000F01CFE1BA000F02C
:1031D00019FE4FF4E131012000F054FC48F6A04202
:1031E000FA21002000F03EF9012000F07DF90020D6
:1031F00000F0BAF94FF400510648FEF7F8F908B9A3
:10320000FEF73EFEFEF7D0F84FF40070014908616A
:103210003EBD000000100140003801400A0A09527A
:103220004742204D41545249582053595354454D1B
:103230002049532052554E09090A00002B2D2D2DEF
:103240002D2D2D2D2D2D2D2D2D2D2D2D2D2D2D2DAE
:103250002D2D2D2D2D2D2D2D2D2D2D2D2D2D2D2D9E
:103260002D2D2D2D2D2D2D2D2D2D2D2D2B0A00000D
:103270007C2053797374656D20696E666F726D6121
:1032800074696F6E203A090909097C0A0000000080
:103290007C0909090909097C0A0000007C204D43CA
:1032A00055203A2053544D33324631303352425434
:1032B0003620090909097C0A00000000E8F7FF1F11
:1032C0007C20466C617368204944206973203A2051
:1032D00025582D25582D2558097C0A007C20466C40
:1032E0006173682043617061636974793A20256471
:1032F0004B090909097C0A00200000201F0000205A
:103300001E000020250000202400002022000020B4
:103310007C2053797374656D2054696D65206973E1
:103320002025642D25642D2564202025643A2564FC
:103330003A256409097C0A00140000207C204875A5
:103340006D69646974792069732025642E25642071
:10335000A3A552482054656D7065726174757265DD
:103360002069732025642E2564097C0A0000000072
:103370007C205B4552524F525D205265616420446F
:1033800048543131204552524F52210909097C0AD3
:10339000000000007C20524742204D617472697821
:1033A0002057694669203A20455350383236362036
:1033B00069703A3139322E3136382E342E31097C4B
:1033C0000A0000007C20524742204D6174726978E7
:1033D00020454550524F4D203A204154323443301D
:1033E00032200909097C0A007C20524742204D61A5
:1033F000747269782053504920464C415348203A12
:1034000020323551313620324D2073706920666C80
:10341000617368097C0A00007C20524742204D619C
:10342000747269782048494748543A2564205749BE
:103430004454483A2564200909097C0A0000000028
:103440007C2053797374656D2056657273696F6E55
:10345000203A20562025582E2558200909097C0A93
:1034600000000000FEB504460E4615460121084640
:10347000FEF7FCFE4FF0804000F0C8F8701E80B2EE
:10348000ADF80400681E80B2ADF800000020ADF871
:103490000600ADF8020069464FF0804000F0C4F924
:1034A0000121880700F0A0F801221146900700F0E2
:1034B000B2F9012C04D10121880700F09BF804E047
:1034C00000214FF0804000F095F8FEBD10B50121BD
:1034D000880700F08FF928B10121880700F087F8EC
:1034E00000F0F4F910BD00003EB5044601210220B1
:1034F000FEF7BCFE134800F089F82F20ADF8040059
:1035000048F69F40ADF800000020ADF80600ADF889
:10351000020069460B4800F087F90121094800F0D4
:1035200063F801221146074800F075F9012C04D117
:103530000121044800F05EF803E00021014800F09A
:1035400059F83EBD0004004010B50121054800F0C7
:1035500051F928B10121034800F049F801F0BAFC03
:1035600010BD0000000400403EB5044601210420C7
:10357000FEF77CFE134800F049F80220ADF8040085
:1035800048F69F40ADF800000020ADF80600ADF809
:10359000020069460B4800F047F90121094800F094
:1035A00023F801221146074800F035F9012C04D117
:1035B0000121044800F01EF803E00021014800F05A
:1035C00019F83EBD0008004010B50121054800F083
:1035D00011F928B10121034800F009F801F066FC57
:1035E00010BD000000080040CA4302827047CA4371
:1035F0000282704721B1028842F00102028004E099
:1036000002884FF6FE731A400280704710B50446D8
:103610006848844208D10121C014FEF757FE0021FA
:10362000E014FEF753FEC4E0B4F1804F08D101214D
:103630000846FEF72BFE00210120FEF727FEB8E02A
:103640005D48844208D101210220FEF71FFE0021BF
:103650000220FEF71BFEACE05848844208D101214D
:103660000420FEF713FE00210420FEF70FFEA0E069
:103670005348844208D101210820FEF707FE0021AB
:103680000820FEF703FE94E04E48844208D1012151
:103690001020FEF7FBFD00211020FEF7F7FD88E06B
:1036A0004948844208D101212020FEF7EFFD002186
:1036B0002020FEF7EBFD7CE04448844208D1012144
:1036C0004014FEF703FE00216014FEF7FFFD70E0DA
:1036D0003F48844209D10121C804FEF7F7FD0021CB
:1036E0004FF40020FEF7F2FD63E03A48844209D12E
:1036F00001210805FEF7EAFD00214FF48010FEF7D6
:10370000E5FD56E03448844209D101214805FEF721
:10371000DDFD00214FF40010FEF7D8FD49E02F48F1
:10372000844208D101214020FEF7B0FD0021402055
:10373000FEF7ACFD3DE02A48844208D101218020FB
:10374000FEF7A4FD00218020FEF7A0FD31E0254812
:10375000844208D101218015FEF798FD0021A015B3
:10376000FEF794FD25E02048844209D10121080498
:10377000FEF7ACFD00214FF48030FEF7A7FD18E006
:103780001A48844209D101214804FEF79FFD002117
:103790004FF40030FEF79AFD0BE01548844208D143
:1037A00001218804FEF792FD00214FF48020FEF7EE
:1037B0008DFD10BD002C01400004004000080040B9
:1037C000000C004000100040001400400034014094
:1037D000004C0140005001400054014000180040DE
:1037E000001C004000200040004001400044014017
:1037F0000048014030B50246002000230024158A0D
:1038000005EA0103958905EA010413B10CB1012011
:1038100000E0002030BD1AB183890B43838102E0B0
:1038200083898B4383817047002202881D4B984215
:103830000ED01D4B98420BD0B0F1804F08D01B4BDF
:10384000984205D01A4B984202D01A4B984204D1A4
:103850004FF68F731A404B881A43174B984207D084
:10386000164B984204D04FF6FF431A40CB881A43B8
:1038700002808B8883850B8803850A4B98420BD086
:10388000094B984208D00E4B984205D00D4B9842F8
:1038900002D00D4B984201D10B7A0386012383821B
:1038A00070470000002C014000340140000400403B
:1038B00000080040000C00400010004000140040D0
:1038C00000400140004401400048014008B51C4848
:1038D0000078401C1A490870084600781949098880
:1038E000884202DB002016490870174A1268527895
:1038F000164B1B781A445101144A12785001FDF7F7
:1039000093FA1348006868B11148006800900E48A7
:103910000068407843B220220C48007841B2002071
:1039200001F077FF0B480078032801D1FFF7F4F985
:10393000182200210248007801F030FE08BD000086
:103940004C0000204A000020380000204D000020DC
:10395000440000203D00002010B5FDF763FE10BDBF
:1039600030B585B004460D46012C3DD1012144F20D
:103970000400FEF79BFC6002ADF8100018208DF8E3
:10398000130003208DF8120004A91848FDF7A4FDC8
:10399000A002ADF8100004208DF8130004A913480C
:1039A000FDF79AFD4FF4E13000900020ADF80400DF
:1039B000ADF80600ADF80800ADF80C000C20ADF82D
:1039C0000A0069460A4800F0A5F9012240F2255193
:1039D000074800F079F90121054800F0F1F840218D
:1039E000034800F0D5F800BF05B030BD0008014025
:1039F0000038014010B540F225511E4800F03AF958
:103A000090B31C4800F0F2F91B491C4A1278885404
:103A1000184800F0EBF9C4B20A2C01D1012000E0F3
:103A2000002016490978952901DB012100E00021D9
:103A3000084378B10A2C06D11148007840F0010003
:103A40000F4908700BE00E48007840F002000C4966
:103A5000087004E009480078401C0849087040F2EA
:103A60002551044800F09DF84021024800F090F8EC
:103A700010BD000000380140700000201A00002036
:103A80001B00002030B585B005460C46012D3DD108
:103A900001210420FEF70AFC01214804FEF7E6FBA1
:103AA0001B4800F099F80420ADF8100003208DF8B1
:103AB000120018208DF8130004A91648FDF70CFD1C
:103AC0000820ADF8100004208DF8130004A9114857
:103AD000FDF702FD00940020ADF80400ADF80600EB
:103AE000ADF80800ADF80C000C20ADF80A006946EE
:103AF000074800F00FF9012240F22551044800F078
:103B0000E3F80121024800F05BF800BF05B030BDCA
:103B1000004400400008014010B540F2255119480A
:103B200000F0A8F848B3174800F060F91649098872
:103B3000032291FBF2F101EB4101144A1144124AB4
:103B40001288032392FBF3F202EB42020E4B1B8816
:103B50009A1A88540C480088B0F5406F05DA0A4874
:103B60000088401C0849088002E0012006490880BE
:103B700040F22551034800F014F84021014800F0BC
:103B800007F810BD004400401C0000200601002082
:103B900001F40072B2F5007F00D100BFCA43028079
:103BA000704710B50022002340F66A14A14200D1EC
:103BB00000BF0A1201249440A3B2DC43048010BD6C
:103BC00021B1828942F40052828104E082894DF65B
:103BD000FF731A408281704710B504462048844222
:103BE00009D101218803FEF771FB00214FF48040C9
:103BF000FEF76CFB32E01B48844209D101214804E6
:103C0000FEF744FB00214FF40030FEF73FFB25E0B8
:103C10001548844209D101218804FEF737FB0021B1
:103C20004FF48020FEF732FB18E01048844209D19F
:103C30000121C804FEF72AFB00214FF40020FEF703
:103C400025FB0BE00A48844208D101210805FEF754
:103C50001DFB00214FF48010FEF718FB10BD000083
:103C6000003801400044004000480040004C004043
:103C70000050004070B502460024002300250020BB
:103C800040F66A16B14200D100BFC1F3421501F0FF
:103C90001F03012606FA03F3012D02D19689334052
:103CA00006E0022D02D1168A334001E0968A3340A5
:103CB0000C12012606FA04F41688344013B10CB134
:103CC000012000E0002070BDF0B50346002400266E
:103CD0000025002040F66A17B94200D100BF1846FF
:103CE000C1F3421401F01F06012707FA06F5012C63
:103CF00001D10C3004E0022C01D1103000E014306E
:103D00001AB107682F43076002E00768AF430760F6
:103D1000F0BD00002DE9F04786B005460E460024B0
:103D2000A24600BFA1460027B08900B100BF2F46C0
:103D30002C8A4CF6FF700440F08804432C82AC8936
:103D40004EF6F3100440B088318908437189084366
:103D50000443AC81AC8A4FF6FF400440B089044371
:103D6000AC8201A8FEF7D2FA1F48874202D1DDF8E3
:103D700010A001E0DDF80CA0A88900F4004040B1DB
:103D80000AEBCA0000EB0A1031684900B0FBF1F8F9
:103D900007E00AEBCA0000EB0A1031688900B0FBAB
:103DA000F1F86420B8FBF0F004012009642101FB64
:103DB0001089A88900F4004040B1322000EBC9000E
:103DC000B0FBF1F000F00700044308E0322000EB04
:103DD00009106421B0FBF1F000F00F0004432C81C6
:103DE00006B0BDE8F0870000003801400146888831
:103DF000C0F308007047C1F308028280704700BF1B
:103E0000FEE700000FB4054B10B503A9044A029861
:103E100000F048FD10BC5DF814FB0000415900089B
:103E2000680000200FB4084B10B504A902AA03983B
:103E300000F038FD044602A9002000F093FE204661
:103E400010BC5DF814FB0000654B0008490050EA07
:103E5000C12018BF04204A0D18BF40F0010040F2F5
:103E6000FF72B2EB515F08BF40F00200012808BFAB
:103E7000052070474100080218BF04200A0E18BF31
:103E800040F001004FF07F4232EA010108BF40F0EC
:103E90000200012808BF0520704700002DE9F74FF8
:103EA000144694B00021C4E902111599079121F03C
:103EB0000045C9498D4206DC1599C4E9000117B0D7
:103EC0000020BDE8F08FC549DFF814A3A9423CDD0E
:103ED0000799C44E0029C44FC44A1599534619DDA9
:103EE000FCF7EEFA554506D0C14AC24BFCF7E8FA9A
:103EF000C4E900010AE04FF0D352BE4BFCF7E0FAF0
:103F000032463B46FCF7DCFAC4E9000117B0012059
:103F1000BDE8F08FFCF733FA554506D0B44AB54BEF
:103F2000FCF72DFAC4E900010AE04FF0D352B14B7F
:103F3000FCF725FA32463B46FCF721FAC4E90001BA
:103F400017B04FF0FF30BDE8F08FAB49A94215998B
:103F500078DB21F0004183468846A84AA84BFCF74D
:103F6000B5FA0022A74BFCF70AFAFCF7E9FB099027
:103F7000FCF79BFB06460F469C4A5346FCF7A6FA05
:103F800043465A46FCF79FFA80468A46984A994B20
:103F900030463946FCF79AFA2A0D01250B92424623
:103FA0005346FCF790FA032DC4E9000139D00B9871
:103FB000C1F30A51401A05EB45111139814230DA3B
:103FC0009148C346784400EB0510CDF80CA00C9046
:103FD000D0E9002330463946FCF778FA02460B4612
:103FE0000491069058460399FCF76AFA80468A467F
:103FF00002460B4658460399FCF762FA049B069A60
:10400000FCF75EFA83460C9803913946D0E9022307
:104010003046FCF75BFA5A46039BFCF751FA6D1CDD
:10402000BDE707980028A2BF099817B0BDE8F08F38
:10403000616881F000416160099817B04042BDE8B5
:10404000F08FFFE784461598C1F31301C0F30A50BF
:10405000A0F2F5304FEA601800F01F06C6F120000C
:10406000139000200690079041F4801E05206D46B5
:1040700076B1664A08EB00017A4452F8213002EB2F
:104080008101B3404A68139922FA01F1194305E00E
:104090005F4908EB0002794451F82210A1FB0E277A
:1040A000A1FB0C131A449A4234BF0123002303EBF3
:1040B000070A05EB8003D3E901B70F448F4234BFF1
:1040C0000121002193448B4411B1934502D903E0AF
:1040D000934501D2012100E00021C3E901B7514419
:1040E00045F82010011EA0F10100C1DC0298059FD7
:1040F00000F10050800F12900298DDE90356800015
:10410000FCF7D3FA834628460D91FCF7DFFA6FF0EF
:104110001D02FCF7B3FCCDE90E013046FCF7D6FAE0
:104120006FF03D02FCF7AAFC80468A463846FCF751
:10413000CDFA6FF05D02FCF7A1FC074642465346FC
:104140001191FCF71CF9DDE90E23FCF718F95A462A
:104150000D9BFCF714F900250E465A4628460D9B88
:10416000FCF7AEF9DDE90E23FCF7AAF94246534607
:10417000FCF7A6F93A46119BFCF7A5F9DFF898A0E1
:10418000244A5346FCF7A2F907468846234A244BA3
:1041900031462846FCF79AF93A464346FCF7EFF8D1
:1041A000074688464FF0A842534631462846FCF75A
:1041B0008DF93A464346FCF7E2F8159A12F0004FA3
:1041C00004D0129A81F0004152421292C4E90001D7
:1041D000129817B0BDE8F08FFB21E93F7CD902406F
:1041E000FB21F93F7370032E8A19A33B0000405452
:1041F0003163621A61B4D03DFB21394183C8C96D76
:10420000305FE43F0000E03F405C0000BC5B00002A
:104210009E5B0000182D4454FB21F93D3326A61166
:10422000460B113C2DE9FF4D21F0004807460C4696
:10423000B8F1795F08DAFCF783FA002801BF0020A3
:10424000324904B0BDE8F08D3A462346104619467F
:10425000FCF73CF9054602462D480E460B46062162
:10426000784400F05DF82A463346FCF72FF9DDE983
:10427000022382468B4638462146FCF727F904463E
:104280000F4652465B4628463146FCF71FF9224648
:104290003B46FCF715F907468A464FF0FF322846A1
:1042A0003146FCF7EBFB1B4A90450ADA3A46534687
:1042B000FCF706F904B00022BDE8F04D134BFCF703
:1042C00002B9154A4245A8BFA8F500154FF00004F1
:1042D000B8BF124D22462B46FCF7F2F80646884638
:1042E00022462B4600200949FCF7EAF804460D4611
:1042F0003A46534630464146FCF7E2F804B02246BF
:104300002B46BDE8F04DFCF7DEB800000000F03FA2
:10431000745900003333D33F0000E93F0000D23F1F
:104320002DE9F0414F1E00EBC7010446D1E9000121
:1043300015461E4637F006020DD02A463346FCF7D6
:10434000C5F87F1E04EBC703D3E90023FCF717F879
:1043500037F00602F1D1022F25D0042F13D0062FFB
:1043600018BFBDE8F0812A463346FCF7AFF8D4E920
:104370000A23FCF704F82A463346FCF7A7F8D4E9E9
:104380000823FBF7FCFF2A463346FCF79FF8D4E9E5
:104390000623FBF7F4FF2A463346FCF797F8D4E9E7
:1043A0000423FBF7ECFF2A463346FCF78FF8D4E9E9
:1043B0000223FBF7E4FF2A463346FCF787F8D4E9EB
:1043C0000023BDE8F041FBF7DABF00002DE9FF4D07
:1043D000054621F0004084B00C46B0F1795F0BDA5D
:1043E0002846FFF733FD042808BF00F06FF8284681
:1043F00008B02146BDE8F08D2A460B461046FCF772
:1044000065F806460F462A462346FCF75FF88046C5
:1044100026488A4632463B4605217844FFF780FF0E
:1044200083461098029160B3214A224B4046514680
:10443000FCF74CF8CDE900015A4640465146029B34
:10444000FCF744F882468846DDE906014FF0FF326A
:10445000FCF714FB52464346FCF732F832463B4623
:10446000FCF734F8DDE90623FCF72AF8DDE9002340
:10447000FCF726F808B02A462346BDE8F04DFCF7C5
:1044800022B80B465A4630463946FCF71FF8084A10
:10449000084BFBF774FF42465346FCF717F808B089
:1044A0002A462346BDE8F04DFBF769BFD25800000D
:1044B000495555555555C5BF0122FCF7DFBA0022B5
:1044C000134610461146FCF773B80000024A00205C
:1044D0001107FCF7D3BA000001FDFFFF0121FCF733
:1044E000F7BA00210846FBF70CBF6FF05E01080722
:1044F000FCF7EEBA2DE9F04D0D4614464FF07F4122
:10450000B1EB440F9EBF4FF0FF312960BDE8F08D45
:104510004FF0004040EA0421C4F3C750783810F04F
:104520001F024A4B4FEA601CC2F120067B44C4F3D1
:10453000C750A0F178004FEA601003EB800053F8F9
:104540002C3008BFD0E901C612D0D0F804C0934087
:104550002CFA06F73B4387680CFA02FC27FA06F8A8
:10456000C06807FA02F2F0404CEA080C42EA000682
:10457000A3FB0132ACFB01C0A6FB016101EB0C0601
:104580008E4234BF4FF0010C4FF0000CC118614453
:10459000BCF1000F02D0814202D903E0814201D276
:1045A000012000E00020104400F120024FEA9218A0
:1045B0008006CA0C40EA42304F03C5F80080FCF781
:1045C00066F882463846FCF76BF86FF01201FCF78C
:1045D0007FFA07463046FCF763F86FF02501FCF7D9
:1045E00077FA834639465046FBF701FE5946FBF7FA
:1045F000FEFD00F500666FF30B0651463046FBF7F3
:1046000048FE3946FBF745FE5946FBF745FE104983
:10461000FBF745FE07460F493046FBF740FE39469B
:10462000FBF7E5FD07460C493046FBF738FE3946F7
:10463000FBF7DDFD14F0004F08BFBDE8F08DC8F1B9
:10464000805180F000402960BDE8F08DA057000047
:10465000DB0FC92F22AAFD290000C92F02E008C8DC
:10466000121F08C1002AFAD170477047002001E0EC
:1046700001C1121F002AFBD17047000001490860E8
:10468000704700006C00002001460812012202EB76
:104690004000484340B270472DE9F04F87B00446D0
:1046A0008946924609EB4900C0EB49103C2190FB3A
:1046B000F1F0C4EB041100EB4100C0F15A0B584675
:1046C000FBF7F3FF204A214BCDE90201FBF7FEFE89
:1046D000074600221E4BFBF76BFF05460E46284699
:1046E000314600F095FA074600221A4BFBF7EEFE22
:1046F0000022194BCDE90001FBF741FECDE9020193
:10470000FCF73DF805902846314601F0FFFD0746CD
:104710000022104BFBF7DAFE00220F4BCDE900011F
:10472000FBF7D1FECDE90201FCF729F80490CDF8A2
:1047300000A0049843B2059842B21021084600F048
:104740003BFE07B0BDE8F08F1F85EB51B81E094056
:104750000080664000001840000030402DE9FF5FF7
:104760000446894604EB44015A22A2EB4100FBF7C0
:104770009CFF82461E4A1F4BFBF7A8FE07460022FD
:104780001D4BFBF715FF05460E462846314600F047
:104790003FFA82460022194BFBF798FE0022184B85
:1047A000CDE90001FBF7EBFD0746FBF7C9FF0390DE
:1047B0002846314601F0AAFD074600220F4BFBF7C1
:1047C00085FE00220E4BCDE90001FBF77CFE824600
:1047D000FBF7B6FF0290CDF80090029843B2039821
:1047E00042B21021084600F0E7FDBDE8FF9F00003F
:1047F0001F85EB51B81E0940008066400000244030
:10480000000030402DE9FF5F0446894604EB440177
:104810005A22A2EB4100FBF748FF82461C4A1D4B7F
:10482000FBF754FE074600221B4BFBF7C1FE054673
:104830000E462846314600F0EBF982460022174B1F
:10484000FBF744FE0022164BCDE90001FBF797FD74
:104850000746FBF775FF03902846314601F056FDE9
:10486000074600220D4BFBF731FE00220C4BCDE931
:104870000001FBF728FE8246FBF762FF02904A46E2
:10488000029841B2039840B200F0F4FDBDE8FF9FEA
:104890001F85EB51B81E09400080664000002E4085
:1048A000000030402DE9FF4F8DB09B460F46044677
:1048B000002606E025280BD05A460F999047641C25
:1048C000761C20780028F5D111B03046BDE8F08F75
:1048D0000025A8460122984900E0054314F8013F4D
:1048E000203B02FA03F00842F7D120782E2817D196
:1048F00014F8010F45F004052A280ED06FF02F029E
:104900002078A0F1300109290AD808EB880102EBD0
:10491000410100EB0108641CF2E757F8048B641CAA
:1049200020786C280DD004DC4C2812D06A2811D1D4
:1049300004E074280DD07A280CD10AE045F4001563
:1049400007E0617845F48015814202D1641C05F5C9
:104950008015641C2278692A45D008DC002AB3D06F
:10496000582A69D0632A10D0642A08D13BE0702A03
:1049700067D0732A13D0752A5CD0782A5CD0104691
:104980005A460F999047761CD3E017F8040B8DF820
:10499000000000208DF80100E946012003E057F8EF
:1049A000049B4FF0FF3069074FF0000501D40AE087
:1049B0006D1C45450DDA8542FADB19F80510002912
:1049C000F6D106E06D1C8542FCDB19F805100029C4
:1049D000F8D12E4404E019F8010B5A460F9990477C
:1049E0006D1EF8D2A5E00A200021CDE90801C5F32B
:1049F000025002280DD001CFC117031E71F1000330
:104A00000DDA4FF0000CD0EB0C006CEB01012D2304
:104A100008E0FF1D27F00707F7E80201EDE72B0587
:104A200004D52B238DF8283001233BE0EB0739D048
:104A30002023F7E70A2000E010200021CDE908013B
:104A400007E01020002145F00405CDE908014FF0F2
:104A50000808C5F3025002280FD001CF00214FF003
:104A6000000A2B071FD5702A0DD0DDE908C38CF092
:104A7000100C5CEA030C0CD015E0FF1D27F00707B3
:104A8000F7E80201EBE740228DF828204FF0010AF9
:104A90000BE050EA010306D030238DF828308DF862
:104AA000292002239A46582A04D024A20DF1200975
:104AB0000B9209E026A2F9E7DDE90823FBF7CAFE1D
:104AC0000B9B9B5C09F8013D50EA0102F4D1ADEB70
:104AD000090020300890680701D44FF001080899B8
:104AE000884502DDA8EB010000E00020804600259B
:104AF00006E00AA85A46405D0F9990476D1C761C47
:104B00005545F6DB04E030205A460F999047761C55
:104B1000B8F10001A8F10108F5DC05E019F8010B76
:104B20005A460F999047761C0899481E089000290C
:104B3000F4DC641CC5E60000092801003031323382
:104B400034353637383961626364656600000000C9
:104B500030313233343536373839414243444546B3
:104B6000000000000A68531C0B60107070470000C2
:104B700010B5002000F064FE00F09EFB2BE0FDF776
:104B800007FD154915480078FFF73CFE4FF47F41BB
:104B900013480078FFF7E2FDFF2211480178114821
:104BA0000078FFF779FD00F01FF800B110BDC820B4
:104BB00000F06AF9002109480078FFF723FE002180
:104BC00007480078FFF7CAFD00220548017805482C
:104BD0000078FFF761FDD2E700A5FF00200000206C
:104BE0001F0000201E0000200849097801F0800104
:104BF000064A11700846802806D11146097801F04E
:104C00007F011170012000E0002070474E0000205D
:104C100000B5244B21F0004287B09A42DCBF00224D
:104C2000134629DD204B9A4208D140B94FF00100CC
:104C3000FFF724FDFFF743FC07B000BD03DBFFF7E0
:104C40003BFC07B000BD02AAFFF728F910F00301F2
:104C500004BF0DF1080C9CE80F000DD001200129C4
:104C60000ED0022914D00DF1080C00909CE80F0022
:104C7000FFF7ACFB07B000BDFFF7D4FA07B000BDEB
:104C80000DF1080C00909CE80F00FFF79FFB05E07A
:104C90000DF1080C9CE80F00FFF7C4FA07B081F093
:104CA000004100BDFB21E93F0000F07F2DE9F84302
:104CB000044602464F486946B0EB420F09D94FF00F
:104CC000E640B0EB420F94BF00204FF0FF30009061
:104CD00030E0494B22F00040834271D947492046D9
:104CE000FBF7DDFAFBF74FFE8046FBF7FCFC00F01C
:104CF0000300009042494046FBF7D1FA054641497E
:104D00004046FBF7CCFA06463F494046FBF7C7FA58
:104D100007463E494046FBF7C2FA2146FBF7BCFA7C
:104D20003946FBF7B6FA3146FBF7B3FA2946FBF7EB
:104D3000B0FA04462546009C002C45DB294614F0B9
:104D4000010F08461CD0FBF7AAFA06463049FBF7CC
:104D5000A6FA3049FBF7A0FA3146FBF7A0FA2E4934
:104D6000FBF745FA3146FBF79AFA2946FBF797FA23
:104D70002946FBF73CFA14F0020F1CD0BDE8F8837B
:104D8000FBF78DFA05462549FBF789FA2449FBF71D
:104D90002EFA2946FBF783FA2249FBF728FA29461F
:104DA000FBF77DFA4FF07E51FBF721FA14F0020F6A
:104DB00008BFBDE8F88380F00040BDE8F883FFE756
:104DC0001046FFF797FBB4E76800B0F17F4F3CBF98
:104DD0004FF07E50BDE8F88307D14FF00100FFF798
:104DE0004DFCBDE8F843FFF77CBB2846BDE8F8431F
:104DF000FFF774BBB61F927E490E494683F9223FE6
:104E00001A61342C0020A23300A0FD390000C93FF4
:104E1000336D4C39DA82083CA0AA2ABEB93AB2BA3C
:104E2000CA9F2A3DDDFFFFBE2DE9F04186B0054651
:104E30000E46174603A804A905AB3A46CDE9001073
:104E40003146284600F08EFD0E490598FBF727FAFB
:104E50008046FBF761FC04040A490498FBF71FFA3B
:104E60008046FBF759FC44EA002406490398FBF707
:104E700016FA8046FBF750FC0443204606B0BDE816
:104E8000F081000000007F4301B50120FEF76CFBBC
:104E900005490098086000BF034800680028FBD15E
:104EA000FEF762FB08BD00002C00002004480068EB
:104EB00020B103480068401E0149086070470000A7
:104EC0002C0000200146962001E0421ED0B20028AE
:104ED000FBD17047F0B5E0B00026002500BF5CE1D3
:104EE000002489E004EB451000EB4001AD4A515C21
:104EF00004EB440230AB995400EB4001A94A114441
:104F0000497804EB44021A44517000EB4001A54A71
:104F10001144897804EB44021A44917000F5007141
:104F200001EB41019F4A525C04F1200101EB410178
:104F30005A5400F5007101EB41019A4A11444A7834
:104F400004F1200101EB410119444A7000F50071A0
:104F500001EB4101934A11448A7804F1200101EBED
:104F6000410119448A7000F5807101EB41018D4ABD
:104F7000515C04EB44020DF8021000F5807101EB66
:104F80004101884A1144497804EB44026B461A44B3
:104F9000517000F5807101EB4101824A114489781A
:104FA00004EB44021A44917000F5407101EB410199
:104FB0007C4A525C04F1200101EB41010DF8012013
:104FC00000F5407101EB4101764A11444A7804F141
:104FD000200101EB410119444A7000F5407101EBD9
:104FE0004101704A11448A7804F1200101EB41012A
:104FF00019448A70601CC4B2202CFFF673AF284697
:1050000001F06CF80827C3E0002671E000246BE093
:1050100004EB461000EB400130AA515C01F0800126
:10502000802903D10121604A116102E001215E4A19
:10503000516100EB400130AA1144497801F0800130
:10504000802903D10901594A116004E04FF400613D
:10505000564A121D116000EB400130AA11448978B4
:1050600001F08001802903D102214F4A116102E041
:1050700002214D4A516100EB40011DF8011001F081
:105080008001802903D10421474A116102E00421F3
:10509000454A516100EB40016A461144497801F0EC
:1050A0008001802903D14901404A116004E04FF496
:1050B00080513E4A121D116000EB40016A461144C6
:1050C000897801F08001802903D10821364A1161D5
:1050D00002E00821344A51614FF48061334A116083
:1050E000121D1160601CC4B2202C91DB701CC6B272
:1050F000022E8BDB002442E004EB440030A9085C64
:105100004006000E04EB440130AA505404EB440066
:1051100030A9084440784006000E04EB44011144D5
:10512000487004EB440030A9084480784006000E23
:1051300004EB44011144887004EB44001DF80000A6
:105140004006000E04EB44010DF8010004EB44009E
:105150006946084440784006000E04EB44016A4664
:105160001144487004EB44006946084480784006C6
:10517000000E04EB440111448870601CC4B2402C42
:10518000BADB0B4931F8170001F08AF8781EC7B274
:10519000002F3FF739AF681CC5B2082DFFF6A0AE4F
:1051A00060B0F0BD0601002000100140100C01406D
:1051B000AE6700082DE9FF5F05460E469046C8F130
:1051C00001004FFA80F94FF0010A4FEA48004042CF
:1051D0004FFA80FB0027444606EB080041B2284600
:1051E000039A00F047F9A6EB080041B22846039A5B
:1051F00000F040F905EB080148B23146039A00F08F
:1052000039F9A5EB080148B23146039A00F032F9AA
:105210004EE0B9F1000F09DB601E44B20BF1020051
:105220004FFA80FB09EB0B004FFA80F9781C47B26C
:105230000AF102004FFA80FA09EB0A004FFA80F9EE
:10524000321951B2EA1950B2039A00F013F9321927
:1052500051B2EA1B50B2039A00F00CF9321B51B262
:10526000EA1950B2039A00F005F9321B51B2EA1B59
:1052700050B2039A00F0FEF8F21951B22A1950B256
:10528000039A00F0F7F8F21951B22A1B50B2039AB0
:1052900000F0F0F8F21B51B22A1950B2039A00F054
:1052A000E9F8F21B51B22A1B50B2039A00F0E2F85F
:1052B000A742AEDBBDE8FF9F2DE9F04788B0002490
:1052C0004CE02046FBF7F1F90746274A274BFBF74E
:1052D000FDF80022264BCDE90001FBF769F9CDE985
:1052E0000201FFF795FC0022224BCDE90401FBF7F8
:1052F000EDF805460022204BFBF741F8CDE9060109
:10530000FBF73DFA81462046FBF7CFF9164A174BCB
:10531000CDE90001FBF7DAF80022154BCDE90201D7
:10532000FBF746F9054600F0F1FF0022114BCDE9ED
:105330000401FBF7CBF8074600220F4BFBF7C3F83D
:10534000CDE90601FBF71BFA82464FF47F024FFAC4
:105350008AF14FFA89F000F08DF81E34B4F5B47F6D
:10536000AFDB08B0BDE8F0871F85EB51B81E0940E0
:105370000080664000002A4000003040F8B5044636
:105380000D4616461F46A019401E42B22B4629461E
:105390002046009700F010F8F8BDF8B504460D4619
:1053A00016461F46A819401E43B2224629462046EB
:1053B000009700F001F8F8BD2DE9F84F04460D46BE
:1053C00016461F46791B48B2FFF75EF90346311BAC
:1053D00048B2FFF759F9834201DD012000E00020C7
:1053E0000090009830B120462C46054630463E4697
:1053F000074600BFB44206DD20463446064628462E
:105400003D46074600BF301B4FFA80F9791B48B272
:10541000FFF73AF98346484609EBD0714FEA610835
:10542000BD4202DA4FF0010A01E04FF0FF3A1CE002
:10543000009828B1214628460A9A00F01BF804E09B
:10544000294620460A9A00F015F8A8EB0B004FFAFF
:1054500080F8B8F1000F06DA05EB0A0045B208EB58
:1054600009004FFA80F8601C44B2B442E0DDBDE8A8
:10547000F88F0000F0B503460C46002B05DB002C2E
:1054800003DB1F2B01DC1F2C00DDF0BD2E4D2D7822
:1054900015B91946204617E02B4D2D78022D06D15F
:1054A000C3F11F0569B2C4F11F0568B20CE0264DB7
:1054B0002D78012D04D1C4F11F0569B2184603E00F
:1054C0002146C3F11F0568B201EB401505EB450508
:1054D0001E4E3544AD78154301EB401606EB4606EB
:1054E0001A4F3E44B57001EB401505EB45053E46AD
:1054F00035446D7845EA122501EB401606EB460669
:105500003E44757001EB401505EB45053E46755D63
:1055100045EA124501EB401606EB4606BD558AB931
:10552000002501EB401606EB46063E44B57001EB44
:10553000401606EB46063E44757001EB401606EB3E
:105540004606BD5500BFA0E73C0000200601002034
:105550002DE9F04105460E4617461C46DDF8188039
:1055600043463A4631462846FFF708FF3019401EA9
:1055700041B243463A462846FFF700FF43462246DB
:1055800031462846FFF709FFE919491E48B243464C
:1055900022463146FFF701FFBDE8F0812DE9F04FCB
:1055A00083460E464FF000082F48006800782F49C8
:1055B000097891FBF0F000F0FF092B4800680078B3
:1055C0002A49097891FBF0F200FB1210264909687C
:1055D0000978401A401C00F0FF0A00BF3FE048462F
:1055E000411C01F0FF0922490F5C0FB9BDE8F08FA3
:1055F000A7F12000C7B2002523E000241AE01A48D2
:105600000068406818490968497807FB0151405C07
:1056100080212141084058B1164A12782A4451B2DB
:105620003219A2EB0A0250B2134A1268FFF722FFA6
:10563000601CC4B20C4800680078A042DFDC681C23
:10564000C5B2094800684078A842D6DC0648006820
:1056500000783044C6B208F1010000F0FF08B8F14C
:105660000A0FBCDB00BFC1E7380000204C0000205F
:10567000060D00204D000020400000202DE9FF4FC6
:105680000646884699464FF0000AD34600BF3BE0E5
:105690005846411C01F0FF0B19F800700FB9BDE826
:1056A000FF8FA7F12000C7B200251FE0002416E0FD
:1056B00018480068406817490968497807FB015194
:1056C000415C80202041014039B108EB050251B214
:1056D000321950B2029AFFF7CDFE601CC4B20D48D9
:1056E00000680078A042E3DC681CC5B20948006885
:1056F0004078A842DADC0748006800783044C6B237
:105700000AF1010000F0FF0ABAF10A0FC0DB00BF86
:10571000C5E70000340000202DE9FC4107460D4696
:1057200014461E466000401C42B2281B41B233465C
:105730003846FFF732FE0020032322462946CDE9F2
:105740000006384600F002F8BDE8FC812DE9FC5F58
:1057500006460F4690469A46DDF83090C8F10100A3
:105760004FFA80FB012001904FEA4800404240B2CE
:1057700000900024454648E0BBF1000F09DB681E9D
:1057800045B20098801C40B20090009858444FFAEF
:1057900080FB601C44B20198801C40B201900198CB
:1057A00058444FFA80FB0AF00100A8B16B005B1C63
:1057B0004B445AB27B1B59B2331958B20D9BFFF7B9
:1057C000ECFD63005B1C4B445AB23B1B59B273198E
:1057D00058B20D9BFFF7E1FD0AF00200A8B16B0083
:1057E0005B1C4B445AB27B1B59B2331B58B20D9B06
:1057F000FFF7D3FD63005B1C4B445AB23B1B59B20D
:10580000731B58B20D9BFFF7C8FDAC42B4DBBDE87B
:10581000FC9F2DE9F0470446884616461F46DDF8F2
:105820002090254607E04B463A4641462846FFF77A
:10583000B4FD681C45B2A019A842F4DCBDE8F087AD
:1058400038B5044620231A46002108460094FFF785
:10585000E0FF38BD2DE9F041C1F30A52A2F2FF3654
:105860002F4A304B0D460446142E2FDA002E12DA42
:10587000FAF785FD00221346FAF7AEFF4CD2002D51
:10588000A4BF0024254647DA25F00040204318BF76
:10589000254D41D018E0DFF894C02CFA06F705EA50
:1058A000070C5CEA040C08BFBDE8F081FAF767FD5D
:1058B00000221346FAF790FF2ED2002D03DA4FF4A0
:1058C0008010F0400544BD43002425E0332EC8BFBE
:1058D000BDE8F081A6F1140C4FF0FF3727FA0CF762
:1058E0003C4208BFBDE8F081FAF7EDFD0022134607
:1058F000FAF772FF10D2002D0DDA142E08BF6D1CBE
:1059000009D0C6F13400012101FA00F02044A04280
:1059100038BF6D1C0446BC4329462046BDE8F081D3
:105920009C7500883CE4377E0000F0BFFFFF0F004D
:105930000146024850F82100704700005000002046
:1059400070B504460D46E1B20548FEF754FA00BFB3
:105950000348008800F080000028F9D0204670BD80
:10596000003801402DE9FF4F85B014461D46DDE9A2
:10597000126700210698FAF763FF05D13C60346096
:105980002C6009B0BDE8F08F39490598FAF7B9FCE9
:1059900005900598FAF70CFFCDE90001FFF75AFFD3
:1059A000CDE90201FAF7CCFE82465046FAF76FFEC7
:1059B00003900599FAF770FC04904FF07E50069919
:1059C000FAF767FC21460390FAF769FC80460499D0
:1059D0000698FAF764FC4FF07E510290FAF75CFCEF
:1059E00021460390FAF75BFC83464FF07E50049902
:1059F000FAF74FFC01900699FAF751FC4FF07E51EF
:105A00000290FAF749FC21460390FAF748FC8146D8
:105A1000BAF1050F22D2DFE80AF003090F151B00C7
:105A20002C60C6F80090C7F800801DE0C5F800B0F3
:105A30003460C7F8008017E0C5F800803460C7F80C
:105A4000009011E0C5F80080C6F800B03C600BE0A3
:105A5000C5F80090C6F800803C6005E02C60C6F8F0
:105A60000080C7F800B000BF00BF00BF89E700009A
:105A7000000070422DE9F843002429E0052094FB42
:105A8000F0F100FB114008BB224611211020FCF769
:105A90000BF945B2224611211020FCF719F846B245
:105AA000224610210846FCF7FFF847B22246102193
:105AB0000846FCF70DF84FFA80F86FF07F402B4650
:105AC0003246394600904046FFF776FC601CC4B26F
:105AD0003C2CD3DBBDE8F883FDF7F6FA4FF44062C7
