:020000040800F2
:10000000F81200208D010008AD210008ED1800084D
:10001000A92100083D0E00087F3F000800000000F5
:100020000000000000000000000000000D2E00088D
:100030006511000800000000312300080D310008A0
:10004000A7010008A7010008A70100084928000827
:10005000A7010008A7010008A7010008A7010008E0
:10006000A7010008A7010008A7010008A7010008D0
:10007000A7010008A7010008A7010008A7010008C0
:10008000A7010008A7010008A7010008A7010008B0
:10009000A7010008A7010008A7010008CD13000868
:1000A000A7010008A7010008A7010008A701000890
:1000B000DF35000859360008D9360008A7010008C6
:1000C000A7010008A7010008A7010008A701000870
:1000D000A7010008ED3B0008A7010008A7010008E0
:1000E0005D130008A7010008A7010008A701000888
:1000F000A7010008A7010008A7010008A701000840
:10010000A7010008A7010008A7010008A70100082F
:10011000A7010008A7010008A7010008A70100081F
:10012000A7010008A7010008A7010008A70100080F
:10013000DFF80CD000F0C6FC00480047ED6700086F
:10014000F81200204FF0010080F3138801480249A3
:100150000160FEE70CED00E00400FA054DF8041D17
:100160004FF0120100FB01F0A0F103000138FDD1B6
:1001700002BC70474DF8041D4FF0140100FB01F064
:10018000A0F103000138FDD102BC7047064880474A
:1001900006480047FEE7FEE7FEE7FEE7FEE7FEE76C
:1001A000FEE7FEE7FEE7FEE77531000831010008D3
:1001B0000649074A0868504343F239021044086070
:1001C0004008704701490860704700007C0000202B
:1001D0006D4EC64140EA01039B0703D009E008C900
:1001E000121F08C0042AFAD203E011F8013B00F8FC
:1001F000013B521EF9D27047421C10F8011B002926
:10020000FBD1801A7047F0B480EA0102D40F42009B
:10021000B2EB410F02D20246084611464A0042D0D4
:10022000C30DDDB2C1F3C752AD1A202D35DAC1F3CB
:10023000160141F4000204B15242C5F1200602FA4F
:1002400006F12A411044B3EBD05F23D0C4B1012D95
:10025000A0EBC35009DCF0BC4FF0004202EAC352ED
:10026000DBB200F5000000F06CBB400000F18070D4
:1002700000EBC350A0F1807040EAD170490009E062
:10028000490841EAC071A0EBC35000F500004008E6
:1002900000EBC350F0BC00F04BBB6142012202EB0B
:1002A0004101001BF6E7F0BC704781F00041AAE76E
:1002B00080F00040A7E780EA010210B502F0004399
:1002C000400022D04A001FD0010E01EB1261C0F3A2
:1002D0005600C2F3560240F4000042F40002A0FBB4
:1002E000022000047F39140400D0401C50EA124060
:1002F00001D44000491EC2B20C0604EBD010401CD1
:100300004008802A02D003E0002010BD20F0010048
:10031000002900DA0020184310BD30B480EA010241
:1003200002F0004530F0004221F0004013D090B1BF
:10033000C30DD40DC2F31601C0F31600E41A41F444
:10034000000140F400027D34914201D3641C00E0BE
:100350004900002C02DA30BC002070474FF4000046
:100360000023914201D3891A034340084FEA410117
:10037000F7D151B1914202D14FF0004105E002D2D4
:100380004FF0010101E06FF0010103EBC45028447C
:1003900030BC00F0CDBA2DE9FE4F804681EA030063
:1003A000C00F0C46009021F0004123F00045B8EB4F
:1003B0000200A94105D24046214690461C460B4604
:1003C000024623F00040104347D0270DC7F30A0030
:1003D000C3F30A510290401A019040286BDAC3F32C
:1003E000130040F4801B0098924620B10023D2EB0A
:1003F000030A63EB0B0B01985946C0F140025046CB
:1004000000F065FA06460D4650465946019A00F03E
:100410007DFA10EB08006141002487EA115284EA5A
:10042000E7731A4340D0009A62B3019A012A4FEA57
:10043000075215DC001B61EB02014FF0004202EA9B
:100440000752CDE90042001C41F5801132462B468F
:1004500000F0D2FA03B0BDE8F08F40462146F9E73C
:10046000001B61EB0201001C41F5801300185B4189
:100470002018A2F5001747EB030140EAD570B61922
:100480006D4111E06D084FEA360645EAC0754FEA46
:100490000752001B61EB0201001C41F58011490865
:1004A0004FEA30000019514132462B4603B0BDE8F7
:1004B000F04F00F092BA0098012240000023D0EBE8
:1004C000020263EBE073009821464FEAE074B8EB58
:1004D000000061EB0401E9E783F000435BE781F092
:1004E000004158E72DE9FE4F81EA030404F000447F
:1004F00021F0004100944FF0000B23F0004350EA3C
:1005000001045ED052EA03045BD0C3F30A54C1F382
:100510000A552C44A4F2F3340194A0FB0254C1F315
:10052000130141F48011C3F3130343F4801301FB5F
:10053000024400FB034E840A970A44EA815447EAC6
:100540008357A4FB076802958D0A05FB07854FEAD0
:10055000932C04FB0C542705029D4FEA065847EAEA
:100560001637B5EB08056EEB070C870E920E47EABF
:10057000811742EA8312A7FB0201B6EB0B0164EB81
:1005800000042B0D43EA0C335E1844EB1C50DA4692
:100590005146E7FB0201C5F313044FEA0B3343EA6C
:1005A00014534FEA0432019C43EA0603A4F10C04FD
:1005B0000294009CCDE900B400F01EFA03B0BDE83F
:1005C000F08F00200146F9E72DE9F04D81EA0304A0
:1005D00004F0004B21F0004514464FF0000A23F0D0
:1005E000004150EA050220D054EA01021DD0C5F3B3
:1005F0000A570246C5F31303C1F31300C1F30A56A9
:1006000040F4801543F48013A7EB0608101BD64670
:1006100008F2FD3873EB050002D308F1010801E090
:1006200092185B41B8F1000F03DA00200146BDE8E3
:10063000F08D00204FF48011064684460EE0171B13
:1006400073EB050705D3121B63EB050306434CEA66
:10065000010C49084FEA300092185B4150EA01074B
:10066000EDD152EA030012D082EA040083EA0501C8
:10067000084305D0101BAB4106D20122002306E03F
:1006800000224FF0004302E06FF0010253101AEB1A
:1006900006004CEB085110EB0A0041EB0B01BDE8E2
:1006A000F04D00F09AB9C10F80EAE0700844CA0723
:1006B0009623002100F045B996230022114600F050
:1006C00040B90EB5C10F80EAE0700844CA070021A6
:1006D00040F233438DE80E000A460B4600F08CF9D9
:1006E00003B000BD0EB540F2334102910021CDE9C7
:1006F00000110A460B4600F07FF903B000BD00F080
:10070000004220F00040C10DC0F3160040F400008C
:100710007F2901DA00207047962903DCC1F1960198
:10072000C84001E096398840002AF4D04042704722
:1007300020F00040C10DC0F3160040F400007F29F6
:1007400001DA00207047962903DCC1F19601C84008
:10075000704796398840704770B5C1F30A5201F06E
:1007600000450024C1F3130140F2FF3341F480112E
:100770009A4201DA002070BD40F233439A42A2F25D
:10078000334203DC524200F0B1F800E090402C43C9
:10079000F1D0404270BDC1F30A5210B5C1F313014C
:1007A00040F2FF3341F480119A4201DA002010BD7B
:1007B00040F233439A42A2F2334203DC524200F049
:1007C00095F810BD904010BD00F0004230F00040A0
:1007D0000AD0C10D01F56071C0F3160042EA015163
:1007E000C2084007114370470020014670470000CF
:1007F00030B5041E71F1000404DB4FF000444042A8
:1008000064EB0101141E73F1000405DB1C464FF07C
:100810000043524263EB0403994208BF904230BD4B
:1008200001F0004330B421F0004150EA010206D04B
:100830000A0DA2F56072C1F31301002A02DC30BC7C
:1008400000207047440F44EAC104C100E01830BCE6
:1008500000EBC25000F06CB8002801DBC0F1004092
:10086000002901DBC1F10041814270472DE9F05FB1
:100870000546002092469B4688460646814640240F
:100880001BE0284641464746224600F02FF85346D3
:100890005A46C01A914110D311461846224600F01C
:1008A00016F82D1A67EB01084F4622460120002159
:1008B00000F00DF817EB00094E41201EA4F10104D1
:1008C000DFDC484631462A464346BDE8F09F202AF1
:1008D00004DB203A00FA02F1002070479140C2F197
:1008E000200320FA03F3194390407047202A04DBC9
:1008F000203A21FA02F00021704721FA02F3D04099
:10090000C2F120029140084319467047202A06DBB5
:10091000CB17203A41FA02F043EAE07306E041FACD
:1009200002F3D040C2F120029140084319467047BB
:100930000029A8BF7047401C490008BF20F00100F3
:10094000704710B4B0FA80FC00FA0CF050EA0104D1
:1009500004BF10BC704749B1CCF1200421FA04F463
:1009600011FA0CF118BF012121430843A3EB0C013C
:10097000CB1D4FEA00614FEA102042BF002010BC9F
:10098000704700EBC35010440029A4BF10BC70474F
:10099000401C490008BF20F0010010BC704710B592
:1009A00041000CD0C0F3C751962908DC7E2909DC30
:1009B00006DB410204D000F0004040F07E5010BD44
:1009C000002010BDC1F19604C4F1200100FA01F12C
:1009D000E040FFF7ADFFA04010BD10B5141E73F14D
:1009E000000408DA401C41F1000192185B411A43EF
:1009F00001D120F0010010BD2DE9F04D92469B463B
:100A000011B1B1FA81F202E0B0FA80F220329046E0
:100A1000FFF75DFF04460F4640EA0A0041EA0B017A
:100A200053465A46084313D0114653EA010019D0E1
:100A3000C8F140025046FFF759FF05460E465046A2
:100A400059464246FFF743FF084305D0012004E022
:100A500020463946BDE8F08D0020054346EAE076A1
:100A60002C4337430A986305E40AA0EB08000022F0
:100A7000FD0A44EA47540A3002D500200146E9E75E
:100A8000010510196941DDE9084500196941BDE812
:100A9000F04DA2E770B521F0004303430CD0C1F341
:100AA0000A550024D5EB040564EB0403D617AD1AF0
:100AB000B34102DB0020014670BD201841EB02511A
:100AC00070BD0000064C074D06E0E06840F00103F1
:100AD00094E8070098471034AC42F6D3FFF72CFB9C
:100AE00098B80008B8B80008420005D0C0F3C75253
:100AF0005242914201DC0020704700EBC150704728
:100B000008B50121084601F015FC01214FF40270DF
:100B100001F040FC0120ADF8000000208DF803003A
:100B20006946024800F020FD08BD0000000C0140AD
:100B300010B5FFF7E5FF00F001F810BD00B591B06A
:100B4000314800F04BFA31480690314807900020B8
:100B500008900120099000200A900B904FF48070BB
:100B60000C9080000D9020200E9000020F9000202D
:100B7000109006A9244800F0D7FA0121224800F07D
:100B800021FA0020019001208DF808008DF809005D
:100B90004FF4602003900020049001208DF8140091
:100BA00001A91A484C3800F05FF8052301220821FA
:100BB00016484C3800F080F8012114484C3800F0F9
:100BC00034F8012111484C3800F024F80F484C3813
:100BD00000F0CEF800BF0D484C3800F03BF800287C
:100BE000F9D10A484C3800F0D3F800BF07484C3818
:100BF00000F026F80028F9D1012104484C3800F013
:100C0000BCF811B000BD0000080002404C240140B7
:100C10005C00002021B1826842F00102826003E0A2
:100C2000826822F001028260704721B1826842F43A
:100C30008072826003E0826822F480728260704772
:100C4000014600208A6802F004020AB1012000E097
:100C500000207047014600208A6802F008020AB1AD
:100C6000012000E00020704730B50246002000233C
:100C700050680F4C20400D790C6844EA052420434D
:100C8000506090680B4C2040D1E902542C434D79C0
:100C900044EA450420439060D06A20F470000C7C44
:100CA000641EE4B2234340EA0350D06230BD00002A
:100CB000FFFEF0FFFDF7F1FFF0B504460D46002002
:100CC0000021092D11DDE068A5F10A0606EB4607B3
:100CD000072606FA07F18843A5F10A0606EB460641
:100CE00003FA06F10843E0600CE0206905EB4507D4
:100CF000072606FA07F1884305EB450603FA06F1D5
:100D000008432061072A0FDA606B561E06EB860740
:100D10001F2606FA07F18843561E06EB860605FADB
:100D200006F10843606322E00D2A0FDA206BD61F1C
:100D300006EB86071F2606FA07F18843D61F06EB47
:100D4000860605FA06F10843206310E0E06AA2F186
:100D50000D0606EB86071F2606FA07F18843A2F167
:100D60000D0606EB860605FA06F10843E062F0BDC3
:100D7000816841F008018160704721B1826842F4C6
:100D8000A002826003E0826822F4A00282607047C1
:100D9000816841F004018160704770B50446002607
:100DA00000F076FE2546E11704EB11610912A0223E
:100DB00002EB4101C8B200F03BFE00F0A1FEE117DA
:100DC00004EB11610912A4EB0121C8B200F030FE5E
:100DD00000F096FE00F05CFEA12000F029FE00F07D
:100DE0008FFE002000F0D6FD064600F06DFE304676
:100DF00070BD10B5012001F0EDFA002001F0EAFA13
:100E000010BD000008B50146002000900348009086
:100E10000098084400900098008808BD006C0040CD
:100E200008B500220092044A0092009A02440092FF
:100E3000009A116008BD0000006C004000BFFEE792
:100E400010B54A1C91B20EE0002200EB4003074CA3
:100E5000E25400EB400323445A7000EB4003234468
:100E60009A70421C90B28842EEDB10BD1E01002039
:100E70002DE9F04104460D4616461F4695FBF4F059
:100E800004FB10553B4632462946204600F032F816
:100E9000BDE8F0812DE9F04186B005460E461746C3
:100EA00003A804A905AB3A46CDE90010314628460F
:100EB00005F0C2FB0E490598FFF7FDF98046FFF7E4
:100EC00037FC04040A490498FFF7F5F98046FFF758
:100ED0002FFC44EA002406490398FFF7ECF980460A
:100EE000FFF726FC0443204606B0BDE8F081000071
:100EF00000007F432DE9F04F85B083460C469146B4
:100F00009A465846FFF7DDFB074688462046FFF71E
:100F1000D8FB00220B4BCDE90001FFF7E3FA3A467C
:100F20004346CDE90201FFF74FFB0546FFF778FC8A
:100F30000490524649460498FFF7ACFF05B0BDE85F
:100F4000F08F00000080764008B50121042001F0F8
:100F500021FA4FF48070ADF8000010208DF80300E6
:100F600003208DF802006946044800F0FDFA4FF4B2
:100F70008071024800F097FB08BD000000080140A6
:100F800008B54FF48070ADF8000048208DF80300DC
:100F90006946024800F0E8FA08BD00000008014078
:100FA00008B54FF48070ADF8000010208DF80300F4
:100FB00003208DF802006946014800F0D5FA08BD0B
:100FC0000008014021B1026842F00102026004E021
:100FD00002684FF6FE731A400260704701684FF6D0
:100FE000FE72114001600021016041608160C160BA
:100FF0004B49884208D14A490839496841F00F01F4
:10100000474A083A51608AE045491431884208D17C
:1010100043490839496841F0F001414A083A5160B2
:101020007DE03F492831884208D13D490839496867
:1010300041F470613A4A083A516070E038493C31F5
:10104000884208D136490839496841F47041344A28
:10105000083A516063E032495031884208D1304942
:101060000839496841F470212D4A083A516056E028
:101070002B496431884208D129490839496841F42B
:101080007001274A083A516049E025497831884281
:1010900008D123490839496841F07061204A083A6B
:1010A00051603CE01F49884206D1011F096841F0A8
:1010B0000F01021F116032E01A491431884208D131
:1010C0001849091F096841F0F001164A121F116002
:1010D00025E014492831884208D11249091F0968BE
:1010E00041F470610F4A121F116018E00D493C3144
:1010F000884208D10B49091F096841F47041094A27
:10110000121F11600BE007495031884207D1054991
:10111000091F096841F47021024A121F11607047CB
:10112000080002400804024010B50022026847F699
:10113000F0739A430C6A8B6823430C6923434C6910
:1011400023438C692343CC6923434C6A23438C6A31
:1011500023431A430260CB6843600B6883604B688B
:10116000C36010BD704701B5002107E043F226417E
:1011700000BF0800A1F1010291B2FAD10098421E0D
:1011800000920028F2D108BD10B50446204602F0B6
:1011900033FA10BDF8B54FF480610020FFF750FE20
:1011A00005F0D2FACFE001F067FA684802780C2126
:1011B000102000F0D9FD44B2644802780C211020C0
:1011C00000F0E6FC45B2624810231A462146009022
:1011D000284604F0C3FD5F4802780821102000F083
:1011E000C3FD44B25B4802780821102000F0D0FC17
:1011F00045B24FF47F4010231A46214600902846FE
:1012000004F0ACFD534800780A2190FBF1F05249FC
:1012100009780C2291FBF2F302FB1311052202FB69
:101220000100C6B232460621102000F09DFD44B2F6
:10123000484800780A2190FBF1F0474909780C22D0
:1012400091FBF2F302FB1311052202FB0100C6B26F
:1012500032460621102000F09BFC45B2FF201023EF
:101260001A4621460090284604F078FD4FF4FA70A3
:1012700004F030FA354802780C21102000F074FD9B
:1012800044B2324802780C21102000F081FC45B2B3
:10129000002010231A4621460090284604F05EFDE7
:1012A0002C4802780821102000F05EFD44B2294845
:1012B00002780821102000F06BFC45B200201023BA
:1012C0001A4621460090284604F048FD214800783F
:1012D0000A2190FBF1F0204909780C2291FBF2F3EE
:1012E00002FB1311052202FB0100C6B232460621A1
:1012F000102000F039FD44B2164800780A2190FB16
:10130000F1F0154909780C2291FBF2F302FB13115D
:10131000052202FB0100C6B232460621102000F071
:1013200037FC45B2002010231A462146009028467B
:1013300004F014FD04F046F828B14FF48061002059
:10134000FFF77EFD00E02EE700BFF8BD1E00002085
:1013500000A5FF001D0000201C00002010B54FF468
:10136000005000F05FF860B300BF4FF40051154823
:1013700000F085F90028F8D04FF40071114800F012
:1013800087F9C0F10100C4B222464FF400710D4844
:1013900000F08BF90C480078782805DA0A480078C4
:1013A000401C0949087002E00020074908700648FF
:1013B000007840F08000044908704FF4005000F0BD
:1013C00011F810BD001001404A00002010B5802027
:1013D00000F028F828B105F0B9F80446802000F0A4
:1013E00001F810BD01490860704700001404014075
:1013F0001CB50121084600F0CDFF0D21022000F0B0
:1014000093F84FF40050009000208DF804000C2059
:101410008DF8050001208DF80600684600F016F8EA
:101420001CBD0000014600200022074B1B6803EA98
:101430000102054B14331B680B4013B10AB10120A4
:1014400000E0002070470000000401400021234913
:101450008279002A3AD00A46126803689A430B46FA
:101460001A600A1D126803689A430B1D1A600279FC
:1014700011440A6803681A430A60184A083212685D
:1014800003689A43154B08331A601A1D12680368E3
:101490009A43124B0C331A604279102A0ED11A1F4C
:1014A000126803681A430D4B08331A601A1D12683C
:1014B00003681A43094B0C331A600DE0074942795F
:1014C00011440A6803681A430A6005E0027911446E
:1014D0000A6803689A430A607047000000040140EC
:1014E0000EB58020ADF8080048208DF80B0002A949
:1014F0000C4800F039F80121084600F04BFF0721A5
:10150000012000F011F88020009000208DF80400E8
:101510000C208DF8050001208DF806006846FFF7C5
:1015200095FF0EBD000C014030B500228B071C0F4B
:101530000F2303FA04F20B4B8C1053F8243093431F
:10154000084C8D1044F8253023468C1053F8243075
:101550008C07240F00FA04F42343024C8D1044F846
:10156000253030BD080001402DE9F041024600253C
:101570000026002000230024002791F803C00CF06F
:101580000F0591F803C00CF0100CBCF1000F03D054
:1015900091F802C04CEA050591F800C0BCF1000FBB
:1015A00031D0146800202BE04FF0010C0CFA00F34E
:1015B000B1F800C00CEA03069E4220D183004FF030
:1015C0000F0C0CFA03F7BC4305FA03FC4CEA0404C5
:1015D00091F803C0BCF1280F06D14FF0010C0CFAB2
:1015E00000FCC2F814C00AE091F803C0BCF1480F37
:1015F00005D14FF0010C0CFA00FCC2F810C0401CE1
:101600000828D1D31460B1F800C0BCF1FF0F34DD5D
:10161000546800202EE000F1080C4FF0010808FA91
:101620000CF3B1F800C00CEA03069E4221D18300FE
:101630004FF00F0C0CFA03F7BC4305FA03FC4CEA1D
:10164000040491F803C0BCF1280F05D100F1080C87
:1016500008FA0CF8C2F8148091F803C0BCF1480FE6
:1016600007D100F1080C4FF0010808FA0CF8C2F895
:101670001080401C0828CED35460BDE8F08102469B
:10168000002093680B400BB1012000E00020704760
:1016900002460020D3680B400BB1012000E000207F
:1016A000704741617047016170470AB1016100E014
:1016B0004161704710B53F48007801285DD13D4831
:1016C000007800F0FE003B4908703B493BA002F067
:1016D0008BFD3EA1384806F0EBFB28B13EA002F09E
:1016E00083FDFEF72FFD38E03CA1334806F0E0FB18
:1016F00018B140A002F078FD2FE045A12E4806F079
:10170000D7FB002829D144A12B4806F0D1FB0028A3
:1017100023D143A1284806F0CBFB00281DD142A1CC
:10172000254806F0C5FB002817D141A1224806F044
:10173000BFFB18B141A002F057FD0EE043A002F03C
:1017400053FD49A002F050FD4DA002F04DFD53A005
:1017500002F04AFD5AA002F047FD09E000201649B8
:101760005C4A127888545B480078401E59490870DA
:10177000584800780028F1D11BE00E480078022874
:1017800017D10C48007800F0FD000A49087052A0FB
:1017900002F02AFD09E0002007494E4A12788854D9
:1017A0004C480078401E4B4908704A480078002891
:1017B000F1D110BD1A000020880000205374726916
:1017C0006E672069733A25730A00000041542B525A
:1017D00053540D0A000000004F4B0D0041542B5391
:1017E00050495F464C4153485F42756C6B4572618E
:1017F00073650A005B4F4B5D205350495F464C4177
:1018000053485F42756C6B4572617365204F4B00A6
:1018100041542B570D0A000041542B530D0A000070
:1018200041542B410D0A000041542B440D0A000085
:1018300041542B434C4F53450D0A00005B4F4B5D09
:1018400020434C4F5345205359530A002A2A2A203B
:10185000202053797374656D2048656C70202020BA
:101860002A2A2A0A00000000506C65617365206115
:101870006E792041542B202E2E20200A00000000DB
:1018800041542B52535420746F207265626F6F74F1
:101890002053797374656D0A0000000041542B5386
:1018A00050495F464C4153485F42756C6B457261CD
:1018B000736520746F2045726173650A0000000033
:1018C00041542B434C4F534520636C6F7365206C20
:1018D00065640A00190000200D0A2044617461202B
:1018E0006F766572666C6F77200D0A0000BFFEE7A9
:1018F00010B540210B48FFF7D4FE00F087F8802197
:101900000848FFF7CEFE022003F002FF4021054801
:10191000FFF7C9FE052003F0FBFE40210148FFF759
:10192000C0FE10BD000C014008B5C020ADF800009D
:1019300003208DF8020010208DF803006946064848
:10194000FFF712FE40210448FFF7ADFE8021024858
:10195000FFF7A9FE08BD0000000C014010B54021B2
:101960000B48FFF79EFE00F051F880210848FFF772
:101970009AFE022003F0CCFE40210548FFF793FEBB
:10198000052003F0C5FE40210148FFF78AFE10BD87
:10199000000C014070B505460026002400F028F830
:1019A00000BF18E040211148FFF77BFE022003F042
:1019B000AFFE40210D48FFF776FE6006040E802141
:1019C0000A48FFF75CFE08B1601CC4B2012003F0B6
:1019D0009FFE701CC6B2082EE4DB15B9FFF7BEFFF0
:1019E00001E0FFF785FF204670BD0000000C0140BC
:1019F00008B58020ADF8000048208DF80300694646
:101A00000148FFF7B1FD08BD000C014008B580207A
:101A1000ADF8000003208DF8020010208DF80300BF
:101A200069460248FFF7A0FD08BD0000000C014018
:101A300070B504460025FFF7E9FF40211348FFF782
:101A400030FE00BF1EE004F08000002804DD80218D
:101A50000E48FFF728FE03E080210C48FFF721FE27
:101A60006006040E40210948FFF71DFE022003F026
:101A70004FFE40210548FFF714FE022003F048FE08
:101A8000681CC5B2082DDEDB70BD0000000C0140F3
:101A900010B5FFF7BBFF80210A48FFF704FE402185
:101AA0000848FFF700FE052003F032FE80210548BC
:101AB000FFF7F7FD062003F02BFE40210148FFF75A
:101AC000F0FD10BD000C014010B5FFF79FFF402155
:101AD0000A48FFF7E6FD80210848FFF7E2FD4021B4
:101AE0000648FFF7E0FD062003F012FE80210348C0
:101AF000FFF7D9FD062003F00BFE10BD000C0140DE
:101B000010B50024FFF774FF80211148FFF7CBFDCB
:101B1000012003F0FDFD40210D48FFF7C4FD012029
:101B200003F0F6FD07E0601CC4B2FA2C03DDFFF7FA
:101B3000CBFF012010BD80210548FFF7A0FD002844
:101B4000F1D140210248FFF7ACFD0020F2E7000090
:101B5000000C01400146CA1701EB92729210A1EBF2
:101B6000820292B9642091FBF0F200FB121050B98E
:101B70004FF4C87091FBF0F200FB121008B901207D
:101B800070470020FCE70120FAE70020F8E700009A
:101B90002DE9F04F8FB083468A461446002C2FDD86
:101BA0000F2C2DDC2046FEF79DFD0746684A694B49
:101BB000FEF798FC05460022674BFEF705FDCDE9D0
:101BC000020106F059F8CDE906015046FEF78AFDFC
:101BD000CDE90401DDE90623FEF784FCCDE90A0125
:101BE0005846FEF77FFDCDE90801DDE90A23FEF73F
:101BF000D2FBCDE90C01FEF7CEFD00F0FF09A3E01A
:101C00000F2C35DD1E2C33DC2046FEF76BFD504AD1
:101C1000504BCDE90001FEF765FC00224E4BCDE9AB
:101C20000201FEF7D1FC4A4A4C4BCDE90401FEF714
:101C300053FC054603F0E0FBCDE906015046FEF7F4
:101C400051FD0746DDE90623FEF74CFCCDE90A010C
:101C50005846FEF747FDCDE90801DDE90A23FEF706
:101C60009AFBCDE90C01FEF796FD00F0FF096BE051
:101C70001E2C35DD2D2C33DC2046FEF733FD344A97
:101C8000344BCDE90001FEF72DFC05460022324B16
:101C9000FEF79AFC07462E4A2E4BFEF71DFCCDE9B7
:101CA000020105F0E9FFCDE906015046FEF71AFDF5
:101CB000CDE90401DDE90623FEF714FCCDE90A01B4
:101CC0005846FEF70FFDCDE90801DDE90A23FEF7CE
:101CD00003FCCDE90C01FEF75EFD00F0FF0933E0E7
:101CE0002046FEF7FFFC0546194A1A4BFEF7FAFBA1
:101CF0000022194BCDE90001FEF766FC184A194B8A
:101D0000CDE90201FEF7E8FBCDE9040103F074FB25
:101D1000074688465046FEF7E5FC3A464346CDE97D
:101D20000601FEF7DFFBCDE90A015846FEF7DAFCB3
:101D3000CDE90801DDE90A23FEF7CEFBCDE90C0170
:101D4000FEF729FD00F0FF0948460FB0BDE8F08F0F
:101D50006F1283C0CA21094000003E40CA21F93FEA
:101D6000D34D621058D912402DE9F04F8FB0834601
:101D70008A461446002C2FDD0F2C2DDC2046FEF762
:101D8000B1FC0746684A694BFEF7ACFB05460022EA
:101D9000674BFEF719FCCDE9020103F02DFBCDE9FD
:101DA00006015046FEF79EFCCDE90401DDE906235D
:101DB000FEF798FBCDE90A015846FEF793FCCDE902
:101DC0000801DDE90A23FEF787FBCDE90C01FEF7E8
:101DD000E2FC00F0FF09A3E00F2C35DD1E2C33DC04
:101DE0002046FEF77FFC504A504BCDE90001FEF73C
:101DF00079FB00224E4BCDE90201FEF7E5FB4A4A92
:101E00004C4BCDE90401FEF767FB054605F034FFB6
:101E1000CDE906015046FEF765FC0746DDE90623DD
:101E2000FEF760FBCDE90A015846FEF75BFCCDE901
:101E30000801DDE90A23FEF7AEFACDE90C01FEF751
:101E4000AAFC00F0FF096BE01E2C35DD2D2C33DCE5
:101E50002046FEF747FC344A344BCDE90001FEF73B
:101E600041FB05460022324BFEF7AEFB07462E4AE9
:101E70002E4BFEF731FBCDE9020103F0BDFACDE9AF
:101E800006015046FEF72EFCCDE90401DDE90623EC
:101E9000FEF728FBCDE90A015846FEF723FCCDE901
:101EA0000801DDE90A23FEF776FACDE90C01FEF719
:101EB00072FC00F0FF0933E02046FEF713FC0546F4
:101EC000194A1A4BFEF70EFB0022194BCDE900010F
:101ED000FEF77AFB184A194BCDE90201FEF7FCFA2E
:101EE000CDE9040105F0C8FE074688465046FEF7D6
:101EF000F9FB3A464346CDE90601FEF7F3FACDE990
:101F00000A015846FEF7EEFBCDE90801DDE90A2398
:101F1000FEF7E2FACDE90C01FEF73DFC00F0FF0907
:101F200048460FB0BDE8F08F6F1283C0CA21094048
:101F300000003E40CA21F93FD34D621058D91240EB
:101F400038B54FF400708B494861642003F0C2FB40
:101F50004FF4007087490861642003F0BBFB4FF425
:101F6000007084494861642003F0B4FB4FF40070B2
:101F700080490861642003F0ADFB4FF480707D4917
:101F8000486140F2FF310020FEF75AFF012005F0C2
:101F90009FFB4FF4967003F09DFB012005F098FB2A
:101FA00075A3774A0021042004F070F875A36FF040
:101FB0007F420721042004F069F8002005F088FB27
:101FC00072A3744A0E21042004F060F872A3714ACF
:101FD0001421042004F05AF84FF4FA6003F07AFB5D
:101FE00040F2FF310020FEF72BFF6D4804F094F91A
:101FF0004FF4FA7003F06EFB6A4820231A46002162
:102000000090084603F08CFF4FF4FA7003F062FB77
:102010004FF47F001F231A4600210090084603F06A
:102020009DFE4FF47F001F230022114600901846AA
:1020300003F094FE4FF4FA7003F04CFBFF230722E9
:102040001146104603F04BFD4FF4FA7003F042FBCB
:102050004FF0FF1307221146172004F0C9F84FF480
:10206000FA7003F037FB002004F056F940F2FF311C
:102070000020FEF7E5FE002433E04FF4FA7003F091
:1020800029FB4FF480703B4948614FF47F0004F016
:1020900043F94FF4FA7003F01DFB40F2FF310020CA
:1020A000FEF7CEFE4FF47F4004F036F94FF4FA709D
:1020B00003F010FB40F2FF310020FEF7C1FEFF20CD
:1020C00004F02AF94FF4FA7003F004FB40F2FF31F8
:1020D0000020FEF7B5FE4FF4807026490861601CB1
:1020E000C4B2022CC9DB00240EE04FF48061002052
:1020F000FEF7A6FE002141EA044004F00DF9C820D5
:1021000003F0E8FA601DC4B2FF2CEEDB00240EE001
:102110004FF480610020FEF793FE002141EA042085
:1021200004F0FAF8C82003F0D5FA601DC4B2FF2C01
:10213000EEDB00240CE04FF480610020FEF780FE0F
:10214000204604F0E9F8C82003F0C4FA601DC4B2C8
:10215000FF2CF0DB6FF07F4004F0DEF84FF480706E
:102160000449086140F6B83003F0B4FAFDF7EAFF1D
:1021700038BD00000010014053544D3332000000C0
:102180004B17EA0020524742200000004D61747254
:10219000697800004040FF002074657374200000DF
:1021A0001111110000FFFF0000BFFEE7704708B5E6
:1021B0004FF4A06000F0ACF828208DF80000032058
:1021C0008DF801008DF8020001208DF803006846AB
:1021D00000F066F826208DF8000000208DF8010040
:1021E00001208DF802008DF80300684600F058F8D1
:1021F0001C208DF8000002208DF801008DF80200EF
:1022000001208DF80300684600F04AF81D208DF883
:10221000000001208DF8010000208DF8020001204F
:102220008DF80300684600F03BF81E208DF8000092
:1022300000208DF801008DF8020001208DF80300C8
:10224000684600F02DF825208DF8000000208DF85C
:1022500001008DF8020001208DF80300684600F0AF
:102260001FF803208DF8000000208DF801000220E7
:102270008DF8020000208DF80300684600F010F889
:1022800017208DF8000000208DF801008DF8020065
:1022900001208DF80300684600F002F808BD000038
:1022A00070B5002100230F22C47804B3154C2468B4
:1022B00004F4E064C4F5E064210AC1F10403CA40F7
:1022C000447804FA03F184781440214309010E4C48
:1022D0000678A155047804F01F050124AC40057868
:1022E0006D11AD0005F1E025C5F8004109E0047865
:1022F00004F01F050124AC40044D0678761145F822
:10230000264070BD0CED00E000E400E080E100E05C
:1023100002490143024A1160704700000000FA05BB
:102320000CED00E0014908627047000000000E4219
:102330007047000029B1064A52690243044B5A61B2
:1023400004E0034A52698243014B5A61704700001E
:102350000010024029B1064AD2690243044BDA61F7
:1023600004E0034AD2698243014BDA6170470000FE
:102370000010024029B1064A12690243044B1A6157
:1023800004E0034A12698243014B1A61704700005E
:102390000010024029B1064A92690243044B9A6137
:1023A00004E0034A92698243014B9A61704700003E
:1023B0000010024029B1064AD2680243044BDA6099
:1023C00004E0034AD2688243014BDA6070470000A0
:1023D000001002400149086070470000400442427A
:1023E0000348406A40F0807001494862704700002D
:1023F0000010024030B500210022002400232D4DA2
:102400006D6805F00C0121B1042905D0082923D1FC
:1024100005E0294D056022E0274D05601FE0254DB0
:102420006D6805F47012234D6D6805F48034022543
:1024300005EB92421CB9214D554305600BE01D4D43
:102440006D6805F400351DB11C4D5543056002E073
:10245000194D5543056002E0174D056000BF00BFF0
:10246000144D6D6805F0F0010909154D6B5C0568A8
:10247000DD4045600F4D6D6805F4E061090A104DBF
:102480006B5C4568DD4085600A4D6D6805F4605100
:10249000C90A0B4D6B5C4568DD40C560054D6D6834
:1024A00005F44041890B074D6B5CC568B5FBF3F53E
:1024B000056130BD0010024000127A0000093D00A5
:1024C000000000201000002010B50146002200236B
:1024D00000204A11012A02D1094C236806E0022A91
:1024E00002D1074C236A01E0054C636A01F01F0228
:1024F000012494401C400CB1012000E0002010BDDC
:102500000010024000210B4A11700A4A203A82F85A
:102510002010012802D0042808D103E00121054A37
:10252000117004E00521034A117000E000BF00BFF4
:102530007047000020100240014908607047000009
:102540003C0442420249096A0143014A1162704750
:1025500000100240024909888143014A11807047F6
:10256000042800401CB50420FEF74CFC45F65A2117
:10257000884245D001214FF0C050FFF7EBFE01200B
:10258000FFF7D0FEFEF735FC0120FFF7BBFF00246C
:1025900001E0601C84B241F288308442F9DB00BF64
:1025A0004120FFF791FF0028FAD04FF48070FFF729
:1025B000C9FF0120FFF7C0FF00F0F6F900F0EAF9CB
:1025C0000121084600F058F900F0E4F947F6FF70E1
:1025D00000F0D0F900F0DEF945F65A210420FEF7AC
:1025E0001FFC00201C2116230922CDE90010062122
:1025F0004FF4FC6000F050F910A001F0F5FD1BE075
:1026000001214FF0C050FFF7A5FE002401E0601C3F
:1026100084B241F288308442F9DB7B20FFF754FF1B
:1026200010B97A20FFF750FFFFF7DAFE00210120F2
:1026300000F022F900F0AEF91CBD0000436F6E6699
:102640006967207274632054696D650A0000000098
:102650000348008840F010000149088070470000DE
:1026600004280040034800884FF6EF7108400149F4
:10267000088070470428004070B50026002400251B
:1026800000F08AF806463A48B6FBF0F4394800886C
:10269000A0423DD037490C8040F2B27510E0284688
:1026A000FFF758FA40B1B4F5B77F02D3A4F5B77479
:1026B00004E0681C85B206E0A4F26D14681C85B2C3
:1026C000B4F5B67FEBD800BF2B480580002516E097
:1026D00029480088FFF73EFA30B1012D04D11D2CA6
:1026E00001D31D3C09E00CE02448405DA04203D822
:1026F0002248405D241A00E003E0681C85B21C2CCF
:10270000E6D200BF681C1E490870601C1D49087095
:102710001748B6FBF0F100FB11644FF46160B4FBA5
:10272000F0F0194908704FF46160B4FBF0F100FB60
:1027300011403C21B0FBF1F0144908704FF4616086
:10274000B4FBF0F100FB11403C21B0FBF1F201FBC6
:1027500012000F4908700B480278094801780648B2
:10276000008800F035F80B490870002070BD0000AB
:102770008051010026000020200000207C810008FC
:1027800022000020230000201C0000201D0000204B
:102790001E00002024000020002103480188001FA3
:1027A000008841EA004070471C2800400146002094
:1027B000064A12880A40D0B2044A121F12880A4000
:1027C00012B108B1012000E0002070470428004049
:1027D000F0B503460C461546642093FBF0F0C6B2F4
:1027E000642093FBF0F700FB1730C1B2132E02DD1B
:1027F00001F16400C1B20846CF1701EB977701EBF6
:10280000A707BAB2072092FBF0F700FB172082B2AD
:102810005719601EDFF82CC01CF80000384482B243
:10282000CF1701EB9777BF10A1EB87071FB9032CD8
:1028300001DA501E82B2072092FBF0F700FB17204E
:10284000C0B2F0BD7081000810B50120FFF7AEFFE7
:1028500070B10120FFF77EFE00F09CF8FFF79CFFAF
:102860000449884204D1002000F076F800F092F884
:1028700010BD00007F51010029B1064A12880243B1
:10288000044B1A8004E0034A12888243014B1A80E9
:1028900070470000002800402DE9F05F06460F4613
:1028A00090469946DDE90AAB0024B6F5FA6F03DBE2
:1028B00040F63300864202DD0120BDE8F09F40F281
:1028C000B2750AE02846FFF745F910B11E480444E6
:1028D00001E01E480444681C85B2B542F2DB781E54
:1028E000C7B2002510E01A48405D40F2A3214843DA
:1028F00004EBC0143046FFF72DF918B1012D01D1BA
:1029000014480444681C85B2BD42ECDBA8F1010008
:1029100040F2A321484304EBC014C9EB4910C0EBBB
:10292000092004EB0014CAEB0A1004EB80045C4499
:102930000120FFF7F7FC00F02DF8204600F00CF81E
:1029400000F028F80020B8E70085E2018033E101BB
:102950007C8100088051010000B50246FFF778FE37
:10296000100C03490880091D0A80FFF77BFE00BD9B
:102970001828004000B50246FFF76AFEC2F3034084
:1029800003490880091D0A80FFF76CFE00BD0000A6
:102990000828004000BF0348008800F020000028FD
:1029A000F9D0704704280040074800884FF6F771B7
:1029B00008400549088000BF0348008800F008006F
:1029C0000028F9D0704700000428004070B50025A9
:1029D000002427E000BF4FF480711448FEF74FFE3B
:1029E0000028F8D02820FDF7B9FB4FF480710F487C
:1029F000FEF745FE01280ED100BF4FF480710B4851
:102A0000FEF73DFE0128F8D0C4F1070101208840FF
:102A1000C0B2054304E0C4F10701012088408543AA
:102A2000601CC4B2082CD5DB284670BD00080140EC
:102A300010B50446FEF7B4FA4FF480712648FEF74D
:102A400030FE1220FEF78FFB4FF480712248FEF714
:102A50002AFE1E20FDF782FBFEF792FA4FF48071EA
:102A60001D48FEF70CFE88BB00BF4FF480711A486A
:102A7000FEF705FE0028F8D000BF4FF4807116481D
:102A8000FEF7FDFD0128F8D0FFF7A0FF2070FFF74B
:102A90009DFF6070FFF79AFFA070FFF797FFE0704F
:102AA000FFF794FF2071FEF77BFA4FF480710A481C
:102AB000FEF7F9FD207861780844A1780844E178B0
:102AC00008442179884202D1012010BD01E0002094
:102AD000FBE70020F9E70000000801402DE9F84F6E
:102AE00007460C4615461E46DDF82880284605F0A8
:102AF00013F983462046FDF7D6FD59460090FDF7B1
:102B0000DAFB8146284602F0C5FC83463846FDF7CD
:102B1000CAFD59460090FDF7CEFB82464946FDF7B7
:102B2000C4FB3060284602F0B5FC83462046FDF722
:102B3000BAFD59460090FDF7BEFB8146284605F0D8
:102B4000EBF883463846FDF7AEFD59460090FDF799
:102B5000B2FB82464946FDF756FBC8F80000BDE8C7
:102B6000F88F00002DE9F04F8BB04FF0100A1020C5
:102B70000A905A4809906FF00200089023200790AD
:102B80005748069006200590192004905548039058
:102B900000269DE00F2002F09DFD4FF4B47096FBDF
:102BA000F0F100FB11666FF0020483E06FF00205A4
:102BB0007CE03046FDF777FD80464A49FDF77BFB18
:102BC000074601A8A5F110010090A4F1100002AB86
:102BD0003A46FFF783FF062C4EDB192C4CDA062D04
:102BE0004ADB192D48DA4FF083410198FDF70BFBC2
:102BF0008146FDF79DFD47B24FF083410298FDF7F6
:102C000002FB8146FDF794FD4FFA80F80022394619
:102C1000404603F017F919220621204604F0EAFC89
:102C20004FEA004B19220621284604F0E3FCC0F1CC
:102C3000FF004BEA002B19220621284604F0DAFC9B
:102C40004BEA00074FF083410198FDF7DCFA834619
:102C5000FDF76EFD4FFA80F84FF083410298FDF7C3
:102C6000D2FA8346FDF764FD4FFA80F93A464146B1
:102C7000484603F0E7F817E04FF083410198FDF76D
:102C8000C2FA8146FDF754FD47B24FF083410298E6
:102C9000FDF7B9FA8146FDF74BFD4FFA80F80022A7
:102CA0003946404603F0CEF8681C45B2232D80DB40
:102CB000601C44B2232CFFF679AF761C02F082FB35
:102CC00028B14FF480610020FEF7BAF801E000BFA0
:102CD00060E700BF0BB0BDE8F08F000085EB1D4240
:102CE000CDCC9C41A7E78E3C21B1028842F0400246
:102CF000028004E002884FF6BF731A4002807047DA
:102D000010B586B0044601212420FFF743FB0121C2
:102D10000803FFF73FFB01210846FFF73BFB20209C
:102D2000ADF8000003208DF8020018208DF8030094
:102D300069462548FEF718FC4020ADF800006946BA
:102D40002148FEF711FC8020ADF8000069461E48BE
:102D5000FEF70AFC1020ADF800008DF8030069466C
:102D60001948FEF701FC10211748FEF79CFC0020D3
:102D7000ADF804004FF48270ADF806000020ADF805
:102D800008000220ADF80A000120ADF80C00400256
:102D9000ADF80E000820ADF810000020ADF81200CC
:102DA0000720ADF8140001A9084800F011F8012C23
:102DB00004D101210548FFF797FF03E000210348F4
:102DC000FFF792FF06B010BD00080140003001403F
:102DD00010B50022028802F441520B884C8823432C
:102DE0008C882343CC8823430C8923434C89234379
:102DF0008C892343CC8923431A430280838B4FF26F
:102E0000FF74234083830B8A038210BD7047000048
:102E10001FB544A30FCB8DE80F00FFF72DFC002456
:102E200004E0002043490855601CC4B2FF2CF8DBC5
:102E3000002405E01DF804003E490855601CC4B29A
:102E40000D2CF7DB3C4800780A2190FBF1F0303084
:102E500038494873384800780A2190FBF1F201FBA9
:102E600012003030334988733A20C87333480078F1
:102E70000A2190FBF1F030302E4908742F48007879
:102E80000A2190FBF1F201FB12003030294948740D
:102E90003A2088742A4800780A2190FBF1F03030FB
:102EA0002449C874264800780A2190FBF1F201FBFE
:102EB000120030301F490875202048758875214858
:102EC00000780A2190FBF1F030301A49C8751D488E
:102ED00000780A2190FBF1F201FB12003030154915
:102EE000087620204876184800780A2190FBF1F0F7
:102EF000303010498876144800780A2190FBF1F2AE
:102F000001FB120030300B49C8761B200F490880A6
:102F10000F480068007809884843401E0D49088022
:102F20001FBD00004E6F772054696D652069733AAC
:102F3000200000001E0D00201C0000201D000020AD
:102F40001E0000202200002023000020440000205A
:102F5000340000204600002010B500F001F810BD3C
:102F60000CB50020019000903348006840F4803098
:102F70003149086000BF3048006800F4003000901C
:102F80000198401C0190009818B90198B0F5A06F05
:102F9000F1D12948006800F4003010B10120009000
:102FA00001E0002000900098012843D123480068E8
:102FB00040F01000214908600846006820F0030036
:102FC00008600846006840F0020008601A4840683F
:102FD000194948600846406848600846406840F41F
:102FE000806048600846406820F47C1048600846CD
:102FF000406840F4541048600846006840F0807013
:10300000086000BF0C48006800F000700028F9D08C
:103010000948406820F003000749486008464068B6
:1030200040F00200486000BF0348406800F00C0018
:103030000828F9D10CBD0000001002400020024019
:1030400010B588B04CF6CA244FF480610020FDF71B
:10305000F7FE002004F086FB142004F08FFB012013
:1030600004F076FB002004F0A7FB204604F06AFB86
:103070000C2004F08FFB29E0FFF7FEFA15480078DA
:1030800015490978154A1278CDE9002102901448B3
:1030900003781448027814A103A801F0B5F80121BF
:1030A00003A804F0B9FA642002F014FB02F08AF9D4
:1030B00060B1052004F056FB012113A004F0ACFA26
:1030C0004FF480610020FDF7BBFE00E0D4E700BFB5
:1030D00008B010BD23000020220000201E000020A8
:1030E0001D0000201C000020202020202020253052
:1030F00032643A253032643A25303264202025305B
:1031000032642D25306400000000000010B500F08E
:103110001FFD10BD30B51449B1F1807F01D30120EE
:103120001DE021F07F40401E4FF0E022506150171B
:103130000F22002807DA13071D0E0C4B00F00F04B6
:10314000241F1D5503E013071C0E094B1C5400BF20
:1031500000204FF0E022906107201061002008B1AC
:1031600000BFFEE730BD00004019010018ED00E08F
:1031700000E400E010B51348006840F00100114978
:10318000086008464068104908400E4948600846F3
:1031900000680E4908400B4908600846006820F4A2
:1031A000802008600846406820F4FE0048604FF424
:1031B0001F008860FFF7D0FE4FF0006004490860F0
:1031C00010BD0000001002400000FFF8FFFFF6FEF7
:1031D00008ED00E03EB504F0B1FC4FF4007050493A
:1031E0004861FFF797FFFEF79FFBFDF7ADFE4FF439
:1031F000E131012000F0B0FC40214A4800F088FD98
:10320000FEF7D5FF0120FFF77BFDFFF7ABF9FDF7D8
:103210008FFC45A000F0E8FF4BA000F0E5FF57A0B1
:1032200000F0E2FF5DA000F0DFFF5FA000F0DCFF38
:1032300065480368001D0268001D016863A000F076
:10324000D3FF61480838018867A000F0CDFFFFF781
:1032500013FA6C4800786C4909786C4A1278CDE909
:10326000002102906A4803786A4802786A48018817
:103270006AA000F0B9FF7348FFF7DAFB01280AD112
:103280007048C07800906F488378427801786EA0CB
:1032900000F0AAFF02E079A000F0A6FF80A000F0F5
:1032A000A3FF8BA000F0A0FF92A000F09DFF4022A2
:1032B00010219CA000F098FF0220FDF76EFD04464F
:1032C0000120FDF76AFD0546224629469FA000F031
:1032D0008BFF32A000F088FF1BA000F085FF4FF4A9
:1032E000E131012000F0CAFC48F6A042FA2100209A
:1032F00000F03EF9012000F07FF9002000F0BCF959
:103300004FF400510648FEF7BAF908B9FEF718FE67
:10331000FEF76EF84FF40070014908613EBD0000F1
:1033200000100140003801400A0A09524742204D6E
:1033300041545249582053595354454D2049532024
:1033400052554E09090A00002B2D2D2D2D2D2D2D06
:103350002D2D2D2D2D2D2D2D2D2D2D2D2D2D2D2D9D
:103360002D2D2D2D2D2D2D2D2D2D2D2D2D2D2D2D8D
:103370002D2D2D2D2D2D2D2D2B0A00007C20537948
:103380007374656D20696E666F726D6174696F6EBE
:10339000203A090909097C0A000000007C09090992
:1033A0000909097C0A0000007C204D4355203A2081
:1033B00053544D333246313033524254362009098A
:1033C00009097C0A00000000E8F7FF1F7C20466C1A
:1033D000617368204944206973203A2025582D25BF
:1033E000582D2558097C0A007C20466C61736820A2
:1033F00043617061636974793A2025644B09090956
:10340000097C0A001E0000201D0000201C00002076
:103410002300002022000020200000207C2053797F
:103420007374656D2054696D652069732025642D62
:1034300025642D2564202025643A25643A256409F5
:10344000097C0A00140000207C2048756D696469BD
:1034500074792069732025642E256420A3A5524821
:103460002054656D70657261747572652069732092
:1034700025642E2564097C0A000000007C205B4541
:1034800052524F525D20526561642044485431319C
:10349000204552524F52210909097C0A00000000C0
:1034A0007C20524742204D617472697820576946EA
:1034B00069203A20455350383236362069703A3107
:1034C00039322E3136382E342E31097C0A00000074
:1034D0007C20524742204D617472697820454550E6
:1034E000524F4D203A2041543234433032200909A2
:1034F000097C0A007C20524742204D617472697831
:103500002053504920464C415348203A20323551EF
:10351000313620324D2073706920666C6173680902
:103520007C0A00007C20524742204D617472697809
:103530002048494748543A25642057494454483A5A
:103540002564200909097C0A000000007C205379C9
:103550007374656D2056657273696F6E203A2056DC
:103560002025582E2558200909097C0A0000000052
:10357000FEB504460E46154601210846FEF7EAFE52
:103580004FF0804000F0CAF8701E80B2ADF8040021
:10359000681E80B2ADF800000020ADF80600ADF85E
:1035A000020069464FF0804000F0C6F9012188070B
:1035B00000F0A2F801221146900700F0B4F90121B1
:1035C000880700F09FF8012C04D101210846FEF77E
:1035D000C1FE03E000210120FEF7BCFEFEBD10B5D8
:1035E0000121880700F08EF928B10121880700F039
:1035F00086F800F067FA10BD3EB5044601210220AE
:10360000FEF7A8FE134800F089F82F20ADF804005B
:1036100048F69F40ADF800000020ADF80600ADF878
:10362000020069460B4800F087F90121094800F0C3
:1036300063F801221146074800F075F9012C04D106
:103640000121044800F05EF803E00021014800F089
:1036500059F83EBD0004004010B50121054800F0B6
:1036600051F928B10121034800F049F802F0A2F80D
:1036700010BD0000000400403EB5044601210420B6
:10368000FEF768FE134800F049F80220ADF8040088
:1036900048F69F40ADF800000020ADF80600ADF8F8
:1036A000020069460B4800F047F90121094800F083
:1036B00023F801221146074800F035F9012C04D106
:1036C0000121044800F01EF803E00021014800F049
:1036D00019F83EBD0008004010B50121054800F072
:1036E00011F928B10121034800F009F802F004F8AB
:1036F00010BD000000080040CA4302827047CA4360
:103700000282704721B1028842F00102028004E087
:1037100002884FF6FE731A400280704710B50446C7
:103720006848844208D10121C014FEF743FE0021FD
:10373000E014FEF73FFEC4E0B4F1804F08D1012150
:103740000846FEF717FE00210120FEF713FEB8E041
:103750005D48844208D101210220FEF70BFE0021C2
:103760000220FEF707FEACE05848844208D1012150
:103770000420FEF7FFFD00210420FEF7FBFDA0E082
:103780005348844208D101210820FEF7F3FD0021AF
:103790000820FEF7EFFD94E04E48844208D1012155
:1037A0001020FEF7E7FD00211020FEF7E3FD88E082
:1037B0004948844208D101212020FEF7DBFD002189
:1037C0002020FEF7D7FD7CE04448844208D1012147
:1037D0004014FEF7EFFD00216014FEF7EBFD70E0F2
:1037E0003F48844209D10121C804FEF7E3FD0021CE
:1037F0004FF40020FEF7DEFD63E03A48844209D131
:1038000001210805FEF7D6FD00214FF48010FEF7D8
:10381000D1FD56E03448844209D101214805FEF724
:10382000C9FD00214FF40010FEF7C4FD49E02F4808
:10383000844208D101214020FEF79CFD0021402058
:10384000FEF798FD3DE02A48844208D101218020FE
:10385000FEF790FD00218020FEF78CFD31E0254829
:10386000844208D101218015FEF784FD0021A015B6
:10387000FEF780FD25E02048844209D1012108049B
:10388000FEF798FD00214FF48030FEF793FD18E01D
:103890001A48844209D101214804FEF78BFD00211A
:1038A0004FF40030FEF786FD0BE01548844208D146
:1038B00001218804FEF77EFD00214FF48020FEF7F1
:1038C00079FD10BD002C01400004004000080040BC
:1038D000000C004000100040001400400034014083
:1038E000004C0140005001400054014000180040CD
:1038F000001C004000200040004001400044014006
:103900000048014030B50246002000230024158AFB
:1039100005EA0103958905EA010413B10CB1012000
:1039200000E0002030BD1AB183890B43838102E09F
:1039300083898B4383817047002202881D4B984204
:103940000ED01D4B98420BD0B0F1804F08D01B4BCE
:10395000984205D01A4B984202D01A4B984204D193
:103960004FF68F731A404B881A43174B984207D073
:10397000164B984204D04FF6FF431A40CB881A43A7
:1039800002808B8883850B8803850A4B98420BD075
:10399000094B984208D00E4B984205D00D4B9842E7
:1039A00002D00D4B984201D10B7A0386012383820A
:1039B00070470000002C014000340140000400402A
:1039C00000080040000C00400010004000140040BF
:1039D00000400140004401400048014000B587B06C
:1039E0002E4B2F4A0021084602F07CF92D4B4FF454
:1039F0007F021021002002F075F94BE00020FFF754
:103A0000FBFD01A8FFF714F8012810D19DF807303D
:103A10009DF8062024A105A800F0F6FB9DF80530CE
:103A20009DF8042022A103A800F0EEFB07E022A1EC
:103A300005A800F0E9FB20A103A800F0E5FB0120A8
:103A4000FFF7DAFD012003F043FE05AB1C4A052118
:103A5000082002F01BFB03AB194A1521082002F0D5
:103A600015FB4FF4FA6001F035FE05AB002205218D
:103A7000082002F00BFB03AB00221521082002F006
:103A800005FB01F09FFC28B14FF480610020FDF799
:103A9000D7F900E0B2E700BF07B000BDE6B4000808
:103AA00000FFFF00F8B4000825642E2564430000E1
:103AB00025642E25644800004572726F7200000074
:103AC0005050500008B51C480078401C1A49087036
:103AD0000846007819490988884202DB0020164907
:103AE0000870174A12685278164B1B781A44510115
:103AF000144A12785001FDF7A3F91348006868B121
:103B00001148006800900E480068407843B22022B7
:103B10000C48007841B2002002F0E7FB0B48007827
:103B2000032801D1FFF774F9182200210248007818
:103B300002F03CFA08BD00004800002046000020CA
:103B400034000020490000204000002039000020FF
:103B500010B5FDF7AFFD10BD30B585B004460D467C
:103B6000012C3DD1012144F20400FEF713FC600258
:103B7000ADF8100018208DF8130003208DF8120006
:103B800004A91848FDF7F0FCA002ADF810000420CD
:103B90008DF8130004A91348FDF7E6FC4FF4E1305B
:103BA00000900020ADF80400ADF80600ADF8080064
:103BB000ADF80C000C20ADF80A0069460A4800F088
:103BC00069F9012240F22551074800F03DF9012131
:103BD000054800F0B5F84021034800F099F800BF0F
:103BE00005B030BD000801400038014010B540F27A
:103BF00025511E4800F0FEF890B31C4800F0B6F9BD
:103C00001B491C4A12788854184800F0AFF9C4B216
:103C10000A2C01D1012000E00020164909789529DD
:103C200001DB012100E00021084378B10A2C06D114
:103C30001148007840F001000F4908700BE00E4871
:103C4000007840F002000C49087004E00948007850
:103C5000401C0849087040F22551044800F061F802
:103C60004021024800F054F810BD00000038014027
:103C700088000020190000201A00002030B585B00F
:103C800005460C46012D3DD101210420FEF782FBA3
:103C900001214804FEF75EFB1B4800F05DF804209C
:103CA000ADF8100003208DF8120018208DF81300D5
:103CB00004A91648FDF758FC0820ADF810000420B0
:103CC0008DF8130004A91148FDF74EFC0094002064
:103CD000ADF80400ADF80600ADF80800ADF80C0032
:103CE0000C20ADF80A006946074800F0D3F801221D
:103CF00040F22551044800F0A7F80121024800F0E5
:103D00001FF800BF05B030BD00440040000801406E
:103D100001F40072B2F5007F00D100BFCA430280F7
:103D2000704710B50022002340F66A14A14200D16A
:103D300000BF0A1201249440A3B2DC43048010BDEA
:103D400021B1828942F40052828104E082894DF6D9
:103D5000FF731A408281704710B5044620488442A0
:103D600009D101218803FEF725FB00214FF4804093
:103D7000FEF720FB32E01B48844209D101214804B0
:103D8000FEF7F8FA00214FF40030FEF7F3FA25E0D1
:103D90001548844209D101218804FEF7EBFA00217D
:103DA0004FF48020FEF7E6FA18E01048844209D16B
:103DB0000121C804FEF7DEFA00214FF40020FEF7CF
:103DC000D9FA0BE00A48844208D101210805FEF720
:103DD000D1FA00214FF48010FEF7CCFA10BD00009C
:103DE000003801400044004000480040004C0040C2
:103DF0000050004070B5024600240023002500203A
:103E000040F66A16B14200D100BFC1F3421501F07D
:103E10001F03012606FA03F3012D02D196893340D0
:103E200006E0022D02D1168A334001E0968A334023
:103E30000C12012606FA04F41688344013B10CB1B2
:103E4000012000E0002070BDF0B5034600240026EC
:103E50000025002040F66A17B94200D100BF18467D
:103E6000C1F3421401F01F06012707FA06F5012CE1
:103E700001D10C3004E0022C01D1103000E01430EC
:103E80001AB107682F43076002E00768AF43076075
:103E9000F0BD00002DE9F04786B005460E4600242F
:103EA000A24600BFA1460027B08900B100BF2F463F
:103EB0002C8A4CF6FF700440F08804432C82AC89B5
:103EC0004EF6F3100440B0883189084371890843E5
:103ED0000443AC81AC8A4FF6FF400440B0890443F0
:103EE000AC8201A8FEF786FA1F48874202D1DDF8AE
:103EF00010A001E0DDF80CA0A88900F4004040B15A
:103F00000AEBCA0000EB0A1031684900B0FBF1F877
:103F100007E00AEBCA0000EB0A1031688900B0FB29
:103F2000F1F86420B8FBF0F004012009642101FBE2
:103F30001089A88900F4004040B1322000EBC9008C
:103F4000B0FBF1F000F00700044308E0322000EB82
:103F500009106421B0FBF1F000F00F0004432C8144
:103F600006B0BDE8F08700000038014001468888AF
:103F7000C0F308007047C1F308028280704700BF99
:103F8000FEE700002DE9F04FCBB04FF00A0B1520F3
:103F900019901A2018904FF00009DA4628228E490D
:103FA0000EA8FCF717F900240DE00EA951F8241013
:103FB0004801C11700EB5171C910C1F120010EAACF
:103FC00042F82410641C5445EFDB002419E008215A
:103FD000012003F077F890FBFAF10AFB11002AA9FF
:103FE00041F824000221012003F06CF8032190FB2A
:103FF000F1F201FB1201012088401AA941F82400C6
:10400000641C102CE3DBE5E04FEAE97109EB517128
:10401000C910A9EBC10139BB002423E00321002012
:1040200003F050F8032190FBF1F201FB1200401E57
:104030002AA951F8241008442AA941F824002AA8E2
:1040400050F82400504503DBAAF1010041F8240098
:104050002AA850F82400002803DA00202AA941F8F1
:104060002400641C102CD9DB09F10109002456E05E
:104070002AA951F824100EAA52F82100FCF721FBBE
:1040800005460E461AA951F82400FCF71AFBCDE9A3
:1040900002014846FCF715FB0746504A504BFCF717
:1040A00021FACDE90001DDE90223FCF71BFACDE995
:1040B000040103F0E1FDCDE908012AA951F824101B
:1040C0000EAA52F82110C1F12000FCF7FAFACDE94E
:1040D0000601DDE90823FCF705FA2A463346CDE957
:1040E0000A01FCF758F9CDE90C01FCF735FB3AA9B8
:1040F00041F824003AA850F8240004280EDA0321DD
:10410000002002F0DFFF0546C01705EB907080101D
:10411000A5EB8000401C3AA941F82400641C102C37
:10412000A6DB00243FE000252BE05D4508DA0020F7
:10413000E9B2C82302460090204601F0ABFC1FE024
:104140001998854208DA0020E9B296231A460090B1
:10415000204601F09FFC13E01898854208DA002001
:10416000E9B26423FA220090204601F093FC07E0B4
:104170000020E9B20346C8220090204601F08AFCE4
:104180006D1C3AA850F82400A842CEDC08E00020BC
:10419000E9B2034602460090204601F07BFC6D1C0C
:1041A000202DF4DB641C102CBDDB322001F092FAD0
:1041B00001F008F970B1052003F0D4FA012109A03B
:1041C00003F02AFA40F2FF310020FCF739FE4BB031
:1041D000BDE8F08F18E70000488100089A99999986
:1041E0009999B93F000000000FB4054B10B503A921
:1041F000044A029800F048FD10BC5DF814FB000072
:104200003D640008800000200FB4084B10B504A9DD
:1042100002AA039800F038FD044602A9002000F02D
:1042200064FF204610BC5DF814FB0000EB50000852
:10423000490050EAC12018BF04204A0D18BF40F0C1
:10424000010040F2FF72B2EB515F08BF40F0020084
:10425000012808BF052070474100080218BF04204C
:104260000A0E18BF40F001004FF07F4232EA010110
:1042700008BF40F00200012808BF05207047000079
:104280002DE9F74F144694B00021C4E902111599A5
:10429000079121F00045C9498D4206DC1599C4E912
:1042A000000117B00020BDE8F08FC549DFF814A366
:1042B000A9423CDD0799C44E0029C44FC44A159950
:1042C000534619DDFCF708F9554506D0C14AC24BE3
:1042D000FCF702F9C4E900010AE04FF0D352BE4BEB
:1042E000FCF7FAF832463B46FCF7F6F8C4E9000161
:1042F00017B00120BDE8F08FFCF74DF8554506D00A
:10430000B44AB54BFCF747F8C4E900010AE04FF0A6
:10431000D352B14BFCF73FF832463B46FCF73BF833
:10432000C4E9000117B04FF0FF30BDE8F08FAB4992
:10433000A942159978DB21F0004183468846A84AB6
:10434000A84BFCF7CFF80022A74BFCF724F8FCF7AA
:1043500003FA0990FCF7B5F906460F469C4A534606
:10436000FCF7C0F843465A46FCF7B9F880468A463F
:10437000984A994B30463946FCF7B4F82A0D012586
:104380000B9242465346FCF7AAF8032DC4E90001FC
:1043900039D00B98C1F30A51401A05EB4511113978
:1043A000814230DA9148C346784400EB0510CDF8DD
:1043B0000CA00C90D0E9002330463946FCF792F867
:1043C00002460B460491069058460399FCF784F880
:1043D00080468A4602460B4658460399FCF77CF80D
:1043E000049B069AFCF778F883460C9803913946AB
:1043F000D0E902233046FCF775F85A46039BFCF7D8
:104400006BF86D1CBDE707980028A2BF099817B08C
:10441000BDE8F08F616881F000416160099817B0D4
:104420004042BDE8F08FFFE784461598C1F31301C1
:10443000C0F30A50A0F2F5304FEA601800F01F06F2
:10444000C6F12000139000200690079041F4801ED2
:1044500005206D4676B1664A08EB00017A4452F8B1
:10446000213002EB8101B3404A68139922FA01F12D
:10447000194305E05F4908EB0002794451F8221026
:10448000A1FB0E27A1FB0C131A449A4234BF01234F
:10449000002303EB070A05EB8003D3E901B70F44C0
:1044A0008F4234BF0121002193448B4411B19345C5
:1044B00002D903E0934501D2012100E00021C3E9C4
:1044C00001B7514445F82010011EA0F10100C1DCE4
:1044D0000298059F00F10050800F12900298DDE9CC
:1044E00003568000FCF7EDF8834628460D91FCF753
:1044F000F9F86FF01D02FCF7CDFACDE90E01304658
:10450000FCF7F0F86FF03D02FCF7C4FA80468A46EB
:104510003846FCF7E7F86FF05D02FCF7BBFA074698
:10452000424653461191FBF736FFDDE90E23FBF7B8
:1045300032FF5A460D9BFBF72EFF00250E465A46CA
:1045400028460D9BFBF7C8FFDDE90E23FBF7C4FFF0
:1045500042465346FBF7C0FF3A46119BFBF7BFFFAD
:10456000DFF898A0244A5346FBF7BCFF074688466D
:10457000234A244B31462846FBF7B4FF3A464346CC
:10458000FBF709FF074688464FF0A84253463146DD
:104590002846FBF7A7FF3A464346FBF7FCFE159A71
:1045A00012F0004F04D0129A81F000415242129250
:1045B000C4E90001129817B0BDE8F08FFB21E93F74
:1045C0007CD90240FB21F93F7370032E8A19A33B6B
:1045D000000040543163621A61B4D03DFB2139417F
:1045E00083C8C96D305FE43F0000E03FDC7300002A
:1045F000587300003A730000182D4454FB21F93D14
:104600003326A611460B113C2DE9FF4D21F0004841
:1046100007460C46B8F1795F08DAFCF79DF80028E8
:1046200001BF0020324904B0BDE8F08D3A46234670
:1046300010461946FBF756FF054602462D480E4622
:104640000B460621784400F05DF82A463346FBF716
:1046500049FFDDE9022382468B4638462146FBF7B7
:1046600041FF04460F4652465B4628463146FBF75B
:1046700039FF22463B46FBF72FFF07468A464FF09D
:10468000FF3228463146FCF705FA1B4A90450ADA04
:104690003A465346FBF720FF04B00022BDE8F04D38
:1046A000134BFBF71CBF154A4245A8BFA8F50015E0
:1046B0004FF00004B8BF124D22462B46FBF70CFF0B
:1046C0000646884622462B4600200949FBF704FF90
:1046D00004460D463A46534630464146FBF7FCFE3B
:1046E00004B022462B46BDE8F04DFBF7F8BE0000B3
:1046F0000000F03F107100003333D33F0000E93F6A
:104700000000D23F2DE9F0414F1E00EBC7010446E7
:10471000D1E9000115461E4637F006020DD02A46A3
:104720003346FBF7DFFE7F1E04EBC703D3E900230C
:10473000FBF731FE37F00602F1D1022F25D0042F0E
:1047400013D0062F18BFBDE8F0812A463346FBF789
:10475000C9FED4E90A23FBF71EFE2A463346FBF7BF
:10476000C1FED4E90823FBF716FE2A463346FBF7C1
:10477000B9FED4E90623FBF70EFE2A463346FBF7C3
:10478000B1FED4E90423FBF706FE2A463346FBF7C5
:10479000A9FED4E90223FBF7FEFD2A463346FBF7C8
:1047A000A1FED4E90023BDE8F041FBF7F4BD000011
:1047B0002DE9FF4D054621F0004084B00C46B0F1D4
:1047C000795F0BDA2846FFF733FD042808BF00F0B5
:1047D0006FF8284608B02146BDE8F08D2A460B4602
:1047E0001046FBF77FFE06460F462A462346FBF798
:1047F00079FE804626488A4632463B460521784463
:10480000FFF780FF83461098029160B3214A224B44
:1048100040465146FBF766FECDE900015A46404648
:104820005146029BFBF75EFE82468846DDE90601A3
:104830004FF0FF32FCF72EF952464346FBF74CFE91
:1048400032463B46FBF74EFEDDE90623FBF744FE0E
:10485000DDE90023FBF740FE08B02A462346BDE809
:10486000F04DFBF73CBE0B465A4630463946FBF747
:1048700039FE084A084BFBF78EFD42465346FBF7CC
:1048800031FE08B02A462346BDE8F04DFBF783BD54
:104890006E700000495555555555C5BF0122FCF7AE
:1048A000F9B80022134610461146FBF78DBE0000F2
:1048B000024A00201107FCF7EDB8000001FDFFFFE0
:1048C0000121FCF711B900210846FBF726BD6FF066
:1048D0005E010807FCF708B92DE9F04D0D461446B6
:1048E0004FF07F41B1EB440F9EBF4FF0FF31296085
:1048F000BDE8F08D4FF0004040EA0421C4F3C750FA
:10490000783810F01F024A4B4FEA601CC2F12006B3
:104910007B44C4F3C750A0F178004FEA601003EB6A
:10492000800053F82C3008BFD0E901C612D0D0F86F
:1049300004C093402CFA06F73B4387680CFA02FC4C
:1049400027FA06F8C06807FA02F2F0404CEA080CB1
:1049500042EA0006A3FB0132ACFB01C0A6FB0161E9
:1049600001EB0C068E4234BF4FF0010C4FF0000CEF
:10497000C1186144BCF1000F02D0814202D903E0AA
:10498000814201D2012000E00020104400F1200209
:104990004FEA92188006CA0C40EA42304F03C5F82D
:1049A0000080FBF780FE82463846FBF785FE6FF0FD
:1049B0001201FCF799F807463046FBF77DFE6FF0D1
:1049C0002501FCF791F8834639465046FBF71BFC5E
:1049D0005946FBF718FC00F500666FF30B065146CD
:1049E0003046FBF762FC3946FBF75FFC5946FBF7A4
:1049F0005FFC1049FBF75FFC07460F493046FBF7A9
:104A00005AFC3946FBF7FFFB07460C493046FBF7DB
:104A100052FC3946FBF7F7FB14F0004F08BFBDE826
:104A2000F08DC8F1805180F000402960BDE8F08D24
:104A30003C6F0000DB0FC92F22AAFD290000C92FFF
:104A400002E008C8121F08C1002AFAD17047704757
:104A5000002001E001C1121F002AFBD170470000B5
:104A600001490860704700008400002001460812D8
:104A7000012202EB4000484340B270472DE9F04F5D
:104A800087B004468946924609EB4900C0EB4910BD
:104A90003C2190FBF1F0C4EB041100EB4100C0F1AC
:104AA0005A0B5846FBF70DFE204A214BCDE9020177
:104AB000FBF718FD074600221E4BFBF785FD054658
:104AC0000E462846314600F097FC074600221A4B56
:104AD000FBF708FD0022194BCDE90001FBF75BFC59
:104AE000CDE90201FBF757FE05902846314603F059
:104AF000C3F807460022104BFBF7F4FC00220F4BD3
:104B0000CDE90001FBF7EBFCCDE90201FBF743FE29
:104B10000490CDF800A0049843B2059842B2102149
:104B2000084601F01BF907B0BDE8F08F1F85EB5177
:104B3000B81E094000806640000018400000304068
:104B40002DE9FF5F0446894604EB44015A22A2EB9B
:104B50004100FBF7B6FD82461E4A1F4BFBF7C2FC25
:104B6000074600221D4BFBF72FFD05460E46284643
:104B7000314600F041FC82460022194BFBF7B2FCA3
:104B80000022184BCDE90001FBF705FC0746FBF7B7
:104B9000E3FD03902846314603F06EF807460022F5
:104BA0000F4BFBF79FFC00220E4BCDE90001FBF7FA
:104BB00096FC8246FBF7D0FD0290CDF8009002985B
:104BC00043B2039842B21021084601F0C7F8BDE88D
:104BD000FF9F00001F85EB51B81E09400080664012
:104BE00000002440000030402DE9FF5F0446894664
:104BF00004EB44015A22A2EB4100FBF762FD82461E
:104C00001C4A1D4BFBF76EFC074600221B4BFBF7B3
:104C1000DBFC05460E462846314600F0EDFB824699
:104C20000022174BFBF75EFC0022164BCDE900017A
:104C3000FBF7B1FB0746FBF78FFD03902846314693
:104C400003F01AF8074600220D4BFBF74BFC00223D
:104C50000C4BCDE90001FBF742FC8246FBF77CFDE3
:104C600002904A46029841B2039840B201F0EAF835
:104C7000BDE8FF9F1F85EB51B81E094000806640CC
:104C800000002E40000030402DE9FF4F8DB00F4650
:104C90000546002606E025280BD0DDE90F129047D7
:104CA0006D1C761C28780028F5D111B03046BDE87F
:104CB000F08F0024A246A1460122EC4900E0044303
:104CC00015F8013F203B02FA03F00842F7D128789B
:104CD0002A2810D06FF02F022878A0F1300109297E
:104CE00014D80AEB8A0102EB410144F0020400EB04
:104CF000010A6D1CF0E701CF5FEA000A03D544F416
:104D00000054CAF1000A44F002046D1C28782E28D1
:104D100017D115F8010F44F004042A280ED06FF0C3
:104D20002F022878A0F1300109290AD809EB89015E
:104D300002EB410100EB01096D1CF2E757F8049BFF
:104D40006D1C28786C280FD006DC4C2817D06828FA
:104D50000DD06A2814D104E0742810D07A280FD11D
:104D60000DE044F400140AE044F4801401E044F43B
:104D700040146978814202D104F580146D1C6D1CC9
:104D80002A786E2A1FD00CDC632A31D004DC002A7A
:104D90008BD0582A11D1A3E0642A68D0692A0CD19B
:104DA00065E0732A2ED004DC6F2A73D0702A04D1F8
:104DB0009BE0752A6FD0782A6ED01046DDE90F127D
:104DC0009047761C50E1C4F30250022806D0032815
:104DD00009D0042801CF09D0066045E101CFF117C1
:104DE000C0E9006140E101CF06803DE106703BE192
:104DF00017F8040B8DF8000000208DF80100EB4639
:104E0000012003E057F804BB4FF0FF3061074FF07B
:104E1000000102D40DE008F10101884649450FDA8E
:104E20008045F8DB1BF808100029F4D108E008F1F0
:104E3000010188468142FADB1BF808100029F6D1EF
:104E4000DDE90F23AAEB08008146214600F036F980
:104E5000304400EB080604E0DDE90F121BF8010BFB
:104E60009047B8F10108F7D221464846F7E00A21F9
:104E7000C4F302534FF0000B0891022B04D001CF72
:104E8000C117032B09D00AE0FF1D27F00707F7E839
:104E9000020108E032E01FE020E000B2C117042B5D
:104EA00001D140B2C117031E71F1000307DA4FF0C0
:104EB000000CD0EB0C006CEB01012D2302E023056C
:104EC00004D52B238DF82430012303E0E30701D020
:104ED0002023F7E7984658E00A2110E010210EE061
:104EE00010204FF0000B08900CE010214FF0000B49
:104EF00044F004044FF00809089103E008214FF042
:104F0000000B0891C4F30253022B04D001CF0021FF
:104F1000032B06D006E0FF1D27F00707F7E8020184
:104F200003E080B2042B00D1C0B24FF00008230789
:104F30002BD5702A07D0DDF820C08CF0100C5CEA6D
:104F40000B0C05D00EE040238DF82430012308E03F
:104F500050EA010306D030238DF824308DF8252047
:104F600002239846DDF820C08CF0080C5CEA0B0C9C
:104F70000BD150EA010301D1630706D530238DF828
:104F800024304FF00108A9F10109582A04D038A2B1
:104F90000B9208AA0A920BE03AA2F9E75B46089A3C
:104FA000FBF764FC0B9B9B5C0A9A521E0A921370DF
:104FB00050EA0102F2D10A98ADEB000000F1200B9B
:104FC000600702D524F4803401E04FF00109D9458F
:104FD00002DDA9EB0B0000E0002000EB0B014144D7
:104FE0000890AAEB010AE00306D4DDE90F2321466D
:104FF000504600F063F806444FF0000908E009A9A4
:1050000011F80900DDE90F12904709F10109761C3A
:10501000C145F4DBE0030CD5DDE90F232146504602
:1050200000F04CF8064404E0DDE90F123020904710
:10503000761C0899481E08900029F5DC08E00A98BB
:105040000A990078491C0A91DDE90F129047761CF5
:10505000BBF10001ABF1010BF1DC21465046DDE96B
:105060000F2300F019F806446D1C1BE60928010007
:1050700030313233343536373839616263646566CE
:105080000000000030313233343536373839414290
:1050900043444546000000002DE9F0410446002548
:1050A0001E461746880404D405E039462020B04740
:1050B0006D1C641EF9D52846BDE8F0812DE9F0414C
:1050C000044600251E469046C80301D5302700E05F
:1050D0002027880404D505E041463846B0476D1CBA
:1050E000641EF9D52846BDE8F0810A68531C0B60A0
:1050F0001070704710B5002001F00EF900F072FD3D
:1051000030E0FDF7B9FA194919480078FFF76CFD4E
:105110004FF47F4117480078FFF712FDFF22154832
:10512000017815480078FFF7A9FC00F04BF928B189
:105130004FF480610020FBF783FE14E0C82000F0EC
:10514000C9FA00210A480078FFF74EFD00210948FE
:105150000078FFF7F5FC0022064801780648007841
:10516000FFF78CFCCDE700BF10BD000000A5FF00DD
:105170001E0000201D0000201C00002010B502466B
:10518000064850F82100C2F11F040123A340184033
:1051900008B1002010BD0120FCE70000D8B50008D0
:1051A00010B503460C46587A0A2800D110BD19489C
:1051B0000078022808D0187830B1184602F016F8A6
:1051C00018781549085C587224B1012C0DD0022CB6
:1051D0001DD112E0187810B900205873E6E70120BD
:1051E0005873184602F0A0FA11E0187810B90020A0
:1051F0005873DBE70120587309E0187810B90220D2
:105200005873D3E7032058730920587200BF00BFBA
:1052100000BFCBE76000002008B7000810B50246C9
:10522000104B1B880BB9002014E00E4B1B88012B80
:1052300005DB0C4B1B88032B01DC05200AE0094B26
:105240001B88042B05DB074B1B88132B01DC0A2072
:1052500000E00F200B18044C34F813301BB2D3803D
:1052600010BD00006800002022B7000870B5044699
:105270000D460026A07A012800D170BD012D01D174
:10528000012620E01B480078C0B12078022804D114
:1052900019480088072800DB01262078032804D15C
:1052A00015480088112800DB0126207804280AD13F
:1052B00011480088202806DB012604E0E07A217BE3
:1052C000884200DB01269EB1A1786078062200F0BA
:1052D0004BFA122060700E20A070627AA17860787C
:1052E00000F042FA00F03EFA0120A0720220207283
:1052F00000BFC2E7710000207200002010B52948ED
:10530000007802281DD02849284802F0E5FD78B928
:105310002749264802F0E0FD50B92649234802F00B
:10532000DBFD28B92449214802F0D6FD002838D0F9
:105330000020224908702248007890BB00F0FAF95A
:105340002FE01949194802F0C7FD30B11648407ADC
:105350000A2802D0144801F08BFB1549134802F0CB
:10536000BBFD30B11248407A0A2802D0104801F043
:105370007FFB10490D4802F0AFFD30B10D48407A77
:105380000A2802D00B4801F073FB0B49074802F0D2
:10539000A3FD30B10848407A0A2802D0064801F03F
:1053A00067FB10BD60000020BE0E0020B00E002084
:1053B000CC0E0020DA0E0020E80E00206100002054
:1053C0006C0000200849097801F08001064A11703C
:1053D0000846802806D11146097801F07F01117036
:1053E000012000E0002070474A00002010B504466C
:1053F000204600F06FF910BD00B5244B21F00042AB
:1054000087B09A42DCBF0022134629DD204B9A4226
:1054100008D140B94FF00100FFF722FBFFF741FA36
:1054200007B000BD03DBFFF739FA07B000BD02AAE1
:10543000FEF726FF10F0030104BF0DF1080C9CE8F5
:105440000F000DD0012001290ED0022914D00DF13A
:10545000080C00909CE80F00FFF7AAF907B000BD08
:10546000FFF7D2F807B000BD0DF1080C00909CE8E2
:105470000F00FFF79DF905E00DF1080C9CE80F0007
:10548000FFF7C2F807B081F0004100BDFB21E93F02
:105490000000F07F2DE9F843044602464F48694674
:1054A000B0EB420F09D94FF0E640B0EB420F94BF8A
:1054B00000204FF0FF30009030E0494B22F00040D8
:1054C000834271D947492046FAF7F5FEFBF767FAA0
:1054D0008046FBF714F900F0030000904249404673
:1054E000FAF7E9FE054641494046FAF7E4FE06466A
:1054F0003F494046FAF7DFFE07463E494046FAF785
:10550000DAFE2146FAF7D4FE3946FAF7CEFE3146E6
:10551000FAF7CBFE2946FAF7C8FE04462546009C5A
:10552000002C45DB294614F0010F08461CD0FAF781
:10553000C2FE06463049FAF7BEFE3049FAF7B8FE19
:105540003146FAF7B8FE2E49FAF75DFE3146FAF712
:10555000B2FE2946FAF7AFFE2946FAF754FE14F0D8
:10556000020F1CD0BDE8F883FAF7A5FE05462549D1
:10557000FAF7A1FE2449FAF746FE2946FAF79BFE00
:105580002249FAF740FE2946FAF795FE4FF07E5180
:10559000FAF739FE14F0020F08BFBDE8F88380F077
:1055A0000040BDE8F883FFE71046FFF795F9B4E740
:1055B0006800B0F17F4F3CBF4FF07E50BDE8F883EC
:1055C00007D14FF00100FFF74BFABDE8F843FFF7B2
:1055D0007AB92846BDE8F843FFF772B9B61F927E44
:1055E000490E494683F9223F1A61342C0020A23328
:1055F00000A0FD390000C93F336D4C39DA82083C08
:10560000A0AA2ABEB93AB2BACA9F2A3DDDFFFFBEA0
:105610002DE9F04186B005460E46174603A804A9B9
:1056200005AB3A46CDE900103146284601F004F8B2
:105630000E490598FAF73FFE8046FBF779F8040417
:105640000A490498FAF737FE8046FBF771F844EAF6
:10565000002406490398FAF72EFE8046FBF768F807
:105660000443204606B0BDE8F081000000007F43FF
:1056700000B500200E4908700E4908800E4802F05F
:105680002DFA0E4802F02AFA01200C4988720C48C3
:1056900002F024FA0B4802F021FA0B4802F01EFA3D
:1056A00000200A49087001200949087000BD000067
:1056B000700000206E000020B00E0020BE0E002002
:1056C000CC0E0020DA0E0020E80E00206000002042
:1056D0007100002001B50120FDF7CEFF05490098BB
:1056E000086000BF034800680028FBD1FDF7C4FF35
:1056F00008BD0000280000200448006820B10348CD
:105700000068401E01490860704700002800002022
:105710000146962001E0421ED0B20028FBD170471E
:1057200010B5044640F2FF310020FBF789FB10BDA5
:105730007047000010B50D2002F01AF8002002F0AA
:1057400011F8012104A001F067FF00BF00F0A5FEE1
:105750000028FBDC10BD000047616D65204F7665B9
:1057600072000000704700002DE9F04105460E462A
:105770001446B01E41B2002268B200F063FB04EB95
:1057800044000B4B185C000404EB4403084F3B44FB
:105790005B7840EA032004EB44033B449B7840EAF7
:1057A0000302B01E41B268B200F04CFBBDE8F081CC
:1057B000B4B50008F0B5E0B00026002500BF5CE1FC
:1057C000002489E004EB451000EB4001AD4A515C38
:1057D00004EB440230AB995400EB4001A94A114458
:1057E000497804EB44021A44517000EB4001A54A89
:1057F0001144897804EB44021A44917000F5007159
:1058000001EB41019F4A525C04F1200101EB41018F
:105810005A5400F5007101EB41019A4A11444A784B
:1058200004F1200101EB410119444A7000F50071B7
:1058300001EB4101934A11448A7804F1200101EB04
:10584000410119448A7000F5807101EB41018D4AD4
:10585000515C04EB44020DF8021000F5807101EB7D
:105860004101884A1144497804EB44026B461A44CA
:10587000517000F5807101EB4101824A1144897831
:1058800004EB44021A44917000F5407101EB4101B0
:105890007C4A525C04F1200101EB41010DF801202A
:1058A00000F5407101EB4101764A11444A7804F158
:1058B000200101EB410119444A7000F5407101EBF0
:1058C0004101704A11448A7804F1200101EB410141
:1058D00019448A70601CC4B2202CFFF673AF2846AE
:1058E00001F000FF0827C3E0002671E000246BE010
:1058F00004EB461000EB400130AA515C01F080013E
:10590000802903D10121604A116102E001215E4A30
:10591000516100EB400130AA1144497801F0800147
:10592000802903D10901594A116004E04FF4006154
:10593000564A121D116000EB400130AA11448978CB
:1059400001F08001802903D102214F4A116102E058
:1059500002214D4A516100EB40011DF8011001F098
:105960008001802903D10421474A116102E004210A
:10597000454A516100EB40016A461144497801F003
:105980008001802903D14901404A116004E04FF4AD
:1059900080513E4A121D116000EB40016A461144DD
:1059A000897801F08001802903D10821364A1161EC
:1059B00002E00821344A51614FF48061334A11609A
:1059C000121D1160601CC4B2202C91DB701CC6B289
:1059D000022E8BDB002442E004EB440030A9085C7B
:1059E0004006000E04EB440130AA505404EB44007E
:1059F00030A9084440784006000E04EB44011144ED
:105A0000487004EB440030A9084480784006000E3A
:105A100004EB44011144887004EB44001DF80000BD
:105A20004006000E04EB44010DF8010004EB4400B5
:105A30006946084440784006000E04EB44016A467B
:105A40001144487004EB44006946084480784006DD
:105A5000000E04EB440111448870601CC4B2402C59
:105A6000BADB0B4931F8170002F0E2F8781EC7B232
:105A7000002F3FF739AF681CC5B2082DFFF6A0AE66
:105A800060B0F0BD1E01002000100140100C01406C
:105A90008A8100082DE9F04705460E4617469846CC
:105AA000DDF820906806040E13E0C6F11F0041B235
:105AB000002260B200F0C6F9380440EA082040EA4B
:105AC0000902C6F11F0041B260B200F0BBF9601CD0
:105AD000C4B2681CB4EB400FE7DBBDE8F0872DE9EA
